:10000000F8FF002011040000D1320000D1320000BE
:10001000D1320000D1320000D1320000D1320000D4
:10002000D1320000D1320000D1320000D1320000C4
:10003000D1320000D1320000D1320000D1320000B4
:10004000D1320000D1320000D1320000D1320000A4
:10040000FFFFFFFFFFFFFFFFFFFFFFFFFEFFFFFFFD
:1004100062B604F0E5FDFEE72DE9F0439FB000BFB2
:1004200065A6269CDFF8E88A8DF83B4002910024FF
:100430000B944FF0FF37044691461D460AE019F829
:10044000011B0298A0470028029000F0A1800B98A1
:10045000401C0B9099F8000050B12528EFD10021E5
:100460000022059106920791089209910A9203E0F1
:100470000B98A5E041F0010119F8010F2028F9D0EF
:1004800023280CD02B2804D02D2805D0302809D0C3
:1004900080E041F00201EFE741F00401ECE741F0B8
:1004A0000801E9E741F01001E6E70D920AE00D9836
:1004B000404505DA00EB800002EB4002303A0D9235
:1004C00009F1010999F80020A2F130000A28EED3C1
:1004D00099F800002E2818BF0C9726D119F8010FA3
:1004E0002A2808D12868286009F1010950F8042B4E
:1004F00028600C9219E02D280CBF09F10109002099
:1005000000220C920BE040B90C9A424505DA02EB4E
:10051000820203EB4203303B0C9309F1010999F885
:100520000030A3F130020A2AEDD3ADF8381030467E
:1005300099F8001000F0A0FE08B119F8010B8DF831
:100540003A009DF83A00682805D199F8000068281B
:100550000CD1622106E06C2804BF99F800006C28D9
:1005600004D171218DF83A1009F1010910A8049005
:100570002A4619F8013B6946204600F061F838B96F
:1005800010AA6946204600F091F900287FF562AF75
:10059000384615E02A2888D12A682A6052F8040BC8
:1005A0002A6000280D9003D540420D9041F00401CF
:1005B00009F101098CE70000686A6C747A4C00004C
:1005C0001FB0BDE8F083622820D0682811D06A28C7
:1005D00003D06C2827D0712825D10868C01D20F0D1
:1005E00007000860D0E9002308300860194610466B
:1005F0007047002A0A680A60106803D0121D0A605A
:1006000000B217E0121D0A6080B217E0002A0A68E3
:100610000A60106803D0121D0A6040B20AE0121D81
:100620000A60C0B20AE0002A0A680A60106803D0B3
:10063000121D0A60C1177047121D0A600021704721
:1006400070B51C460D46B4F125002E69114600F028
:100650001B811C386AD0001F022867D9133843D089
:10066000093863D0801E16D0401E1ED0401E0228BE
:100670005CD9001F19D0401F00F08380401E33D08A
:10068000401E00F0CD80C01E00F0DC80801E2BD00C
:10069000C01E29D0FEE06869421C6A610A680A60CF
:1006A00052F8043B0A603354FEE095F83A00012208
:1006B000FFF789FFC5E900010023994204DA686960
:1006C000411C69612D220DE0288F810704D56869DE
:1006D000411C69612B2205E0C00722D56869411CD5
:1006E0006961202232541CE095F83A000022FFF79D
:1006F0006AFFC5E9000195F83800010711D5D5E971
:1007000000230020834208BF82420AD044F0200028
:10071000782806D1686930213154401C421C6A6136
:100720003454214668693044E86087E00868C01D99
:1007300020F007000860D0E9002308300860C5E910
:100740000023D5E90001C80F04D06869411C696124
:100750002D220DE0288F810704D56869411C69614D
:100760002B2205E0C00704D56869411C696120227D
:10077000325468693044E8602146284600F0C8F9E0
:1007800092E005F13A02507820B14FF0FF340FF6B5
:10079000502062E01078622808D0682824D06A28A7
:1007A00012D06C282ED071280ED02BE00A680A6077
:1007B00052F8040B0A6020B94FF0FF340FF63820CE
:1007C0004BE0E96A01706FE00A680A6052F8040BB6
:1007D0000A6020B94FF0FF340FF61C203DE0EA6AB2
:1007E000D317C0E900235FE00A680A6052F8040BDF
:1007F0000A6020B94FF0FF340FF6FC102DE0E96AD3
:10080000018051E00A680A6052F8040B0A6020B9BE
:100810004FF0FF340FF6E0101FE0E96A016043E09B
:100820000A680A6052F8040B0A60002120F00002F6
:1008300021F0FF33C5E90023EE607821284600F05F
:10084000BBF831E00868086050F8044B0860EC60C1
:100850003CB94FF0FF340FF6B81000F019FD201A24
:1008600070BD2E6B002E04D5204600F031FD0446ED
:1008700008E032460021204600F046FD002814BF63
:10088000041B3446AC610FE06869411C6961252294
:10089000325409E06969481C6861252272542100BC
:1008A00002D0431C6B613454002070BD2DE9FC4123
:1008B0000F46064690467A6B7869396ABC6A121A06
:1008C000B869521A796A121AF869521A121A97F804
:1008D0003800141B41070FD42020002C8DF8000095
:1008E0000ADD254601236A463946304600F060FCA1
:1008F00000285DD16D1EF5D17B69424639463046F0
:1009000000F056FC002853D130208DF800003D6ADD
:10091000002D09DD01236A463946304600F048FCC7
:10092000002845D16D1EF5D1BB69FA6839463046BD
:1009300000F03EFC00283BD130208DF800007D6A9D
:10094000002D08DD01236A463946304600F030FCB0
:1009500070BB6D1EF6D1F868B969FB69421839465B
:10096000304600F025FC18BB30208DF80000BD6A31
:10097000002D08DD01236A463946304600F018FC98
:10098000B0B96D1EF6D197F8380041070DD520207B
:10099000002C8DF8000008DD01236A4639463046F8
:1009A00000F006FC20B9641EF6D10020BDE8F681F7
:1009B0004FF0FF30BDE8F6812DE9FC4707468C4635
:1009C0003E69BCF16F0F08BF082405D04CF0200031
:1009D000782814BF0A2410243C25D7E90023BCF151
:1009E000640F18BFBCF1690F9046994606D10021EB
:1009F0008B4203DAD8F1000869EB49094FF0000A8D
:100A0000D14508BFD0451FD1386BE8B9082C4BD170
:100A100097F83800010747D530203B2586F83B0082
:100A200042E000280ED597F8380000F01400102896
:100A300008D17B6B7969386A5B1A1B1A9A1A002AEB
:100A4000C8BF3A62BDE8F3878DF800C0404649460A
:100A50002246E31700F084FC3032D0B26D1E3A28F3
:100A6000019504DB9DF80000A0F151018A18725530
:100A7000404649462246E31700F072FC894680460C
:100A8000D14508BFD04503D0F86871198842DDD33D
:100A9000082C09D197F83800010705D5705D30287A
:100AA00002D06D1E30207055C5F13C02BA6171193B
:100AB000F960386B8242B4DA821A3A624FF6EF700C
:100AC000398F01403987BDE8F3872DE9D0430646C9
:100AD0000F4614464FF00008DFF8389412E0E007A4
:100AE00007D542464B463046394600F051FD064692
:100AF0000F464046494642464B4600F049FD6410C9
:100B000080468946002CEAD130463946BDE8D0837C
:100B10002DE9F34F054641F020048DB0D5E9008959
:100B2000612C02AE09D0286B002848BF062003D4F0
:100B300008BF672C01D101202863D5E900235800A4
:100B40004015401C0ED119030CD00320A8619DF85C
:100B5000381061391A2902D20FF2D06111E00FF278
:100B6000D0610EE059004915491C0FD118030DD171
:100B70000320A8619DF8381061391A2914D30FF2A7
:100B8000B861E868032200F0D5FDD3E1194621F0F1
:100B90000043B3F5801F10460DD20027BB4208BFAB
:100BA000BA42019703D111E00FF28861E9E701AA87
:100BB00000F014FE0AE0DFF8607307EB1352DFF871
:100BC0005C3301921940DFF858331943C5E900013D
:100BD000612C0ED1E86830210170821CEA609DF81A
:100BE000381061290CBF7821582141706869801C38
:100BF0006861D5E900AB2BF0004300202AF0000229
:100C0000834204BF8242002300F05B81612C40F0EC
:100C1000AA80286B002847BF21210091401C00902A
:100C2000009F7F1C404649460022002300F00EFE34
:100C3000D94601998DF8082038BF89F00049091F6D
:100C4000002FD04601910DF1090040F34981B349CD
:100C5000DFF8D0B20C9106464046494600220023F8
:100C600000F00CFE80F03B814800400D00F11C02BA
:100C700011D0002A0FDD40F2FF70824205DB09F03F
:100C8000004040EA0B01002013E00C98014041EACB
:100C9000025140460DE029F00043002028F00002F8
:100CA000834208BF82420FBF40461C22404600F0EC
:100CB000FDFD8046894600F097FEFF1F002F044689
:100CC00009DD00F0AFFE02460B464046494600F003
:100CD000BBFE80468946F01D072104E004F00F02A8
:100CE00000F8012D2411002C01DD491EF6D5491E06
:100CF0005CBF002200F8012DF9D5ECE00020194678
:100D000002AA0A4400E05B1E12F80149491E84420F
:100D1000F9D00F2804D10DF10900425C521C425455
:100D2000002904D50198001D02AE5B1C0190591EDC
:100D300012D49DF838007218A0F13A07147804F123
:100D400030085FFA88F43A2CA8BFB844491E02F86C
:100D50000189F3D58DF83800286B002840F1B08068
:100D6000591E2963ACE0404649460022002300F0AA
:100D70006DFD019938BF89F0004947F29750414312
:100D8000694A91FBF2F20192D2F1070204DD40467A
:100D90004946FFF79AFE0AE0524200206349FFF7F6
:100DA00094FE02460B464046494600F0BFFE804690
:100DB000662C286BDFF878B106BF019F0A3706273B
:100DC0003F18142FC8BF142730208DF8080089461B
:100DD0000DF1090000E03046002F34DD06464046A4
:100DE000494600F0C7FF01460A4606F10803042001
:100DF0000A26B2FBF6F606EB860EA2EB4E02303266
:100E000003F8012C0A22B6FBF2F202EB820EA6EBEB
:100E10004E063036401E03F8026DE9D1083F002F20
:100E200003F10806D7DD084600F0B8FF02460B467E
:100E30004046494600F008FE00225B4600F0A8FB51
:100E400080468946CBE70DF10901401A0DF10906EC
:100E500004E00199491E401E0191761C3178302929
:100E6000F7D0662C02D10199491C03E0652C0CBF18
:100E7000012100212B6BCB189842B8BF431E002BD9
:100E80001ED4834204DAF05C3528A8BF392000DA8A
:100E900030201946721E02EB010800E05B1E18F8B4
:100EA0000199491E8145F9D0392802D1705C401C56
:100EB0007054002904D50198401C16465B1C019013
:100EC000019800B200901BB29DF8381032462846B7
:100ED00000F034F82EE0C61D002F3FF7BDAE3046BF
:100EE0000DF10901401A009903468842C8BF0B461C
:100EF000002B0DF109063FF52FAF8342BFF6FEAE82
:100F00000DF10900C15C07297FF7F8AE0F20F6E666
:100F1000CBCCCC0C0000244002FCFFFFFFFF0F8075
:100F20000000E03F0000F07FA08601000000F03FDD
:100F300084D797410FB0BDE8F08F00002DE9F84746
:100F400083B006468A461746984600F035FFB8F14A
:100F5000000F406A356B90F8009002DC4FF00108FA
:100F6000B6A74AF02000BDF93040662808BF641CCF
:100F700015D0672840F0848014F1040FC0F28680F9
:100F8000AC4280F2838096F83800641C010702D4DA
:100F9000A845B8BF454620B22D1A48BF00250FFA14
:100FA00084FAF068B169BAF1000F25DC4A1C3023DD
:100FB0004354002D03DC96F83800010703D5F06890
:100FC00000F80290521C15EB0A0FB8BF6C4220B219
:100FD000441941424445B8BFA046B26171620FFA5C
:100FE00088F5F561F068B3692A463946184400F07F
:100FF000A1FB641BB462C4E022B29045084417DA36
:101000004246394600F096FBB0694044B061AAEB15
:101010000801002D716203DC96F838100A0705D527
:10102000F16801F80090F069401CF061B562A8E039
:10103000394600F07FFBB069002D5044A8EB04084E
:1010400003DC96F838100A0703D5F16801F8009020
:10105000401CB0610FFA88F08542F368B069B8BFF0
:10106000A8460FFA88F207EB0A01184400F062FB69
:10107000B1690FFA88F00144B161281A706280E00A
:10108000BAF1610F14D14FF0700A16E0A84504DAE6
:1010900096F838100A0758BF45466D1E48BF002510
:1010A000BAF1670F14BF4FF0450A4FF0650A04E02C
:1010B000BAF1410F08BF4FF0500AB169F368481CFC
:1010C000B061002D17F8012B5A5403DC96F8381044
:1010D0000A071BD5F168431CB36101F80090002D8D
:1010E00014DDA8F101080FFA88F039468542F76847
:1010F000B8BFA8460FFA88F2F81800F01BFBB069D9
:101100000FFA88F108446D1AB0617562F068B16930
:101110000844002C80F800A003D42B224270811CCC
:1011200003E02D2141706442811C00206A460AE0E0
:1011300023460A2493FBF4F404EB8405A3EB450354
:1011400002F8013B401C24B2002CF1DC012806DC33
:101150004AF02002652A04BF302201F8012B48B969
:10116000302001F8010B07E0401E1DF8003030333D
:1011700001F8013B0028F7DCF268B0691044091A55
:10118000F16196F8380000F0140010280DD1726952
:10119000B169706A8A18F1698218B06A8A1882186F
:1011A000706B8242BCBF821A326204B0BDE8F08725
:1011B000F8B505460E4617461C46002074B117F8D0
:1011C000011BB068A847B06030B1F06A401CF06203
:1011D0000020641EF3D1F2BD4FF0FF30F2BD0000DD
:1011E0007072696E74665F733A20256E206469734D
:1011F000616C6C6F776564007072696E74663A201A
:1012000062616420256E20617267756D656E740081
:101210007072696E74665F733A2062616420257330
:1012200020617267756D656E740000006E616E00FE
:101230004E414E00696E6600494E4600300030B4A3
:10124000002513E050F8042BD30744BFA9F1010394
:101250009A18091F042942F8045BFAD213468C0736
:1012600044BF15809B1CC90748BF1D7050F8041B64
:101270000029E7D130BC70470278C9B28A421AB15E
:101280001CBF10F8012FF9E718BF002070470000BD
:1012900080B500B906A005490B681BB122220021C8
:1012A000984701E000F08CFD222002BD0811FF1FCD
:1012B000636F6E73747261696E742068616E646CC2
:1012C00065723A20626164206D65737361676500C1
:1012D00000F10103810704D010F8011B820781B1DE
:1012E000FAD10268A2F10131914311F0803104BFBB
:1012F00050F8042FF6E709BAB1FA81F100EBD100FA
:10130000401CC01A70470000C9B2830706D0521EA5
:1013100022D310F8013B9942F7D11FE0083A13D3CA
:1013200002F1040241EA012141EA014150F8043B83
:10133000121F21BF4B40A3F1013C2CEA030C1CF00F
:10134000803FF3D0C9B2001F083210F8013B521E93
:1013500028BF91EA030FF8D818BF0120401E70473C
:10136000BBBBE1B1B2F5803F80F07E80022A1ED97E
:101370008C46B1FBF2F102FB11C31B0443EA10439C
:10138000B3FBF2FC02FB1C3380B240EA0343B3FB25
:10139000F2F002FB103240EA0C4000237047022AB0
:1013A00005D98446B0FBF2F002FB10C270474AB187
:1013B00005D100F0010249085FEA300070470022C1
:1013C0000023704700F000BD0B0002000021002048
:1013D0007047904271EB030CF6D3B3F5803F2FD2E8
:1013E000F0B5B3FA83F7B1FA81F4A7F10F0E3D1B04
:1013F0005340CEF1200602FA0EF2F3415340B5F10C
:101400000F0746D80F3C2C444140C4F12006A040B1
:10141000F1414140B1FBF3F603FB1611A2FB064577
:10142000001BA94102D2761E8018594180EA0102B0
:1014300021FA0EF362FA0EF200215A403046F0BD56
:1014400030B4B1FBF3FC03FB1C11A2FB0C45001BE9
:10145000A94103D2ACF1010C8018594130BC0246BD
:101460000B46604600217047B2F1807F65D3F0B52E
:10147000B2FA82F7B1FA81F4C7F10F063D1B22FAE6
:1014800006F307F1110EF24120355A40B5F10F076E
:10149000B8D94140C4F12006A040F1414140B1FB20
:1014A000F3FC03FB1C11A2FB0C45001BA94103D25A
:1014B000BCF1010C801859410F2F12D30F3FC90303
:1014C00041EA5041B1FBF3F603FB1611A2FB0645BE
:1014D000D4EBC030A94102D2761E8018594146EAA9
:1014E000CC3C07B34140C7F12006B840F141414030
:1014F000B1FBF3F603FB1611A2FB0645001BA94145
:1015000002D2761E8018594180EA010221FA0EF3B8
:10151000C7F1200462FA0EF20CFA07F05A402CFAD6
:1015200004F13043F0BD80EA010221FA0EF30021FC
:1015300062FA0EF260465A40F0BD8C46B1FBF2F101
:1015400002FB11C31B0243EA1063B3FBF2FC02FB74
:101550001C331B024CEA002043EA1063B3FBF2FC8D
:1015600002FB1C331B024CEA002043EA1063B3FB6E
:10157000F2FC02FB1C331B024CEA002043EA10631E
:10158000B3FBF2FC02FB1C324CEA00200023704744
:10159000B0B581EA030C0CF0004C40F2FF7515EA7F
:1015A00011541DBF15EA1357AC42AF4239E0E4199C
:1015B00023EA455343F48013C90241F0004141EA54
:1015C000505EC7021100A7FB020200284FF0000086
:1015D000EEFB01204FF00001E3FB072118BF42F0B2
:1015E0000102401800214941E3FB0E01A4F580648B
:1015F0000F0302D252004041494154F101046CDD15
:10160000470872F1004250F1000051EB0451A1F57E
:1016100080115CBF41EA0C01B0BD4CEA05510020CD
:10162000B0BD05EA1357AC4214BFAF4241E050EAE7
:10163000410E1CBF52EA430E02E061460020B0BDDD
:1016400024423C441BD15FEA070EF6D0090302BFD7
:1016500001460020AEF1140EB1FA81F7AEEB07049B
:1016600001FA07FE0C37C7F1200100FA07F7C8405E
:101670004EEA000E23EA455343F48013A2E733F009
:101680000043B3FA83F704BFB2FA82FE77440B3FFC
:10169000E41BB7F1200E2FBF02FA0EF3BB40C7F1D7
:1016A000200E22FA0EFE38BF43EA0E03BA40641C35
:1016B00082E750EA410E14BF52EA430E6FF0000178
:1016C0004FF4001717EB430F8ABF194617EB410F72
:1016D000B5E74CEA05510020B0BDD4F10104B4F1E6
:1016E00020070FDAC4F12007520828BF42F0010298
:1016F00010FA07F501FA07F7E1BF2A43E040384343
:10170000E1400FE0352C98DCC7F1200452EA40029A
:1017100020FA07F218BF42F0010231FA07F0A140A7
:101720000A43002172F1004250F1000051EB0C011C
:10173000B0BD000062B38B0708D0521E11F8013B08
:1017400000F8013B00F024808B07F6D1830740F0BE
:10175000208000BF103A07D330B4B1E83810103AF7
:10176000A0E83810F9D230BC530724BFB1E8081004
:10177000A0E8081044BF51F8043B40F8043BD207EE
:1017800024BF31F8022B20F8022B44BF0B780370E2
:101790007047121F17D35B0009D151F8043B20F8A2
:1017A000023B1B0C121F20F8023BF6D20BE051F853
:1017B000043B00F8013B1B0A20F8023B1B0C121FE4
:1017C00000F8013BF3D238BF121D521E24BF11F89E
:1017D000013B00F8013BF8D87047000010B51446F3
:1017E00000F002F8226010BDC1F30A5343B14A0071
:1017F00012F5001F28D2A3F2FE32A1EB025170476E
:1018000050EA410C20D001F0004C31EA0C01B1FA51
:1018100081F204BFB0FA80F3D2180B3AB2F1200380
:101820002CBF00FA03F1914041EA0C013EBFC2F126
:10183000200C20FA0CF319439040524240F2FD3341
:10184000D21A01EB03517047002270474FF4001C7D
:101850001CEB410F94BF1CEB430F09E041EA030C62
:1018600050EA4C0C52EA0C0C03D2994208BF904249
:10187000704714BF8B428242704700004FF4001C37
:101880001CEB410F94BF1CEB430F09E041EA030C32
:1018900050EA4C0C52EA0C0C03D28B4208BF824235
:1018A000704714BF9942904270470000124254D4CE
:1018B00040F2FF7C1CEA11530FD0634531D09B18D6
:1018C00063453CBF01EB0251704701F0004141EA22
:1018D0000C510020AFF30080704750EA410320D044
:1018E00001F0004C91EA0C011CD0B1FA81F30B3BE2
:1018F0009A420DD9D21A994051EA0C01C3F1200C39
:1019000020FA0CFC61449840531C40F2FF7CD7E75E
:10191000914041EA0C01C2F1200C20FA0CF319436A
:1019200090407047B0FA80F31533202BE0D3202A83
:10193000EED3203A203B9A4209D9D21A00FA03F199
:1019400041EA0C010020531C40F2FF7CB8E700FA8A
:1019500002F141EA0C0100207047524240F2FF7C44
:101960001CEA11530DD06345DBD0B2EB030C3CBF36
:10197000A1EB025170470CF1010221EA035141F43D
:10198000801150EA410CCCD001F0004C352A27DC04
:1019900030B481EA0C01B2F1200309DAC2F120036C
:1019A000044601FA03F5D0402843D1409C400CE0A6
:1019B000C3F12002450020FA03F418BF44F00104EB
:1019C00021FA03F091400C43002174F1004550F1DD
:1019D000000051EB0C01244230BC7FF47BAF704718
:1019E0006146002076E70000C1F30A5340F2FE3260
:1019F0009B1A14DDD3F120034FEAE17208DDC9021E
:101A000041EA505141F00040D840801850407047A2
:101A100003F2E13010B1D24382F000407047002061
:101A200070470000C11768B14840401AB0FA80F210
:101A30009040D21CC907C2F5846241EA025202EB0F
:101A4000D02140057047000070B44FF0004591EA86
:101A5000030F40F1BB816B40841A71EB030603D284
:101A6000001BB141121973414FF4001C1CEB410FD4
:101A700034BF7CEB430442E00C0DA4EB1356352E2F
:101A80004FDC45EAC323DB0A45EAC121C912B6F19E
:101A900020050DDD63FA05F6EB4086EA03051242E8
:101AA00018BF45F00105C01851F100010CD213E038
:101AB00062FA06F5F2405540F3415A40B340F34014
:101AC0005A408018594107D349085FEA30005FEA5D
:101AD000350528BF45F0010501F58011420875F173
:101AE000004250F1000041EB04514E0016F5001F7A
:101AF00070BC38BF70470020090D090570471CEB0A
:101B0000410F10D252EA43060BD0BCEB410F05D86F
:101B10000C0DAB43661E342EB6DD02E0AB438018DD
:101B2000594170BC704770BC70470000F0B540F27E
:101B3000FF7581EA030C0CF0004C15EA11541DBF2F
:101B400015EA1357AC42AF42E5E0BC41C1F31301C3
:101B5000C3F31303801A994143F4801304D2641E23
:101B60004000494180185941C90241EA5051B1FB36
:101B7000F3F603FB1611A2FB0675D7EBC020A941B3
:101B800002D2761E80185941C90241EA5051B1FB78
:101B9000F3FE03FB1E11A2FB0E75D7EBC020A9417B
:101BA00003D2AEF1010E80185941890241EA9051E9
:101BB000760546EA8E2EB1FBF3F603FB1611A2FB67
:101BC0000675D7EB8020A94102D2761E80185941B4
:101BD000C90241EA50514EEA060EB1FBF3F603FB8F
:101BE0001611A2FB0675D7EBC020A94102D2761EC2
:101BF00080185941C90241EA5051B1FBF3F703FB88
:101C00001711A2FB0735D3EBC020A94167F10007EC
:101C10000CBF004247F0010766F3D5274FEA1E319B
:101C2000B80814F5806412DDBD0775F1004250EB71
:101C30000E5051EB045111F5801F5CBF41EA0C01BD
:101C4000F0BD4CF07F6141F0E0410020F0BDBD07E8
:101C50006D0840EA0E5041F48011D4F10104B4F152
:101C600020060ADAC4F120060200E04001FA06F379
:101C7000E1401843B24015430EE0342C13DCC6F1AA
:101C8000200445EA40056D0820FA06F2154321FAC2
:101C900006F0A1400D43002175F1004250F1000013
:101CA00051EB0C01F0BD00205FEA0C01F0BDCFB993
:101CB00092185B41B3FA83F704BFB2FA82F6BF19F8
:101CC0000B3FB7F120062FBF02FA06F3BB40C7F166
:101CD000200622FA06F638BF3343BA401CB1E41995
:101CE000641E33E77F4231F00041B1FA81F404BF52
:101CF000B0FA80F6A4190B3CB4F120062FBF00FA0D
:101D000006F1A140C4F1200620FA06F638BF31439F
:101D1000A0403C1B1AE7AC421ABF05EA1357AF427A
:101D200012E050EA41061CBF52EA4306BFE750EA00
:101D30004107304661461CBF41EA0551F0BD52EAF9
:101D4000430C08BFC143F0BD00204FF4001616EB52
:101D5000410F98BF16EB430F08BF16EB410F24BF8E
:101D6000C14305E016EB430F0CBF61464CEA055139
:101D7000F0BD0000400D491840EA81200CD2490D09
:101D8000A1F58061491C40F0004005DBD1F11F0145
:101D900054BFC840C017704700207047014648B183
:101DA000B0FA80F18840C91CC1F58461090501EBD6
:101DB000D02140057047000000487047240DFF1FE8
:101DC000012000F0B9B8000070470000841A71EBE0
:101DD000030604D26E40001BB141121973414FF447
:101DE000001C1CEB410F34BF7CEB430683E00C0D61
:101DF000A4EB1356362E00F37C80012E45EAC32354
:101E000041DC43EA525312BFD20292025B0824051E
:101E100045EAC12141EA5051D2EBC020994125D475
:101E200007D1B0FA80F610FA06F162D00020203611
:101E300008E0B1FA81F6B140C6F1200220FA02F2C0
:101E40001143B0404FEAF474B4EB465434F0010649
:101E50004FEA74040AD8D6F50016760D04F0004453
:101E6000F04061FA06F25040F1404840C00A40EAB2
:101E7000415021F0004128BF5FEA500550F10000B9
:101E800044EBD12135E0DB0A45EAC121C90AB6F1AC
:101E900020050EDD42EA0242120CC5F1200603FACB
:101EA00006F6EB4042EA06056D42984161F10001F9
:101EB0000DE062FA06F5F240554063FA06FC82EA4C
:101EC0000C02F3405A406D42904161EB030111F462
:101ED000801F05D1641E620502D06D00404149415A
:101EE00021F48011430875F1004350F1000041EBEB
:101EF000045170BC70471CEB410F15D223F0004316
:101F000052EA43060BD04FEA4C0CBCEB410F04D80D
:101F10000C0D661E342EB7DDEBE7801A994150EAAE
:101F2000410608BF0021E4E708BF1CEB430F28BFB0
:101F30006FF00001DDE700002021090326311820A1
:101F4000ABBEF9E7860B00004A15000000006041B7
:101F50000000E04000000000000000000000000061
:101F60000000FA440000FA438C000000000000006A
:101F70000000000000000000000000000000000061
:101F80000000000000000000000000000000000051
:101F90000000000000000000000000000000000041
:101FA0000000000000000000000000000000000031
:101FB0000000000000000000000000006A6E6B6C72
:101FC000676D4E4F343536370000000000000000CA
:101FD0000000000000000000000000000000000001
:101FE0000000000000004E6F6E4D61736B61626C0B
:101FF0006500000000486172644661756C74000001
:10200000000000004D656D4D616E6167656D656E28
:102010007400004275734661756C74000000000026
:10202000000055736167654661756C7400000000BF
:1020300000000000000000000000000000000000A0
:102040000000000000000000000000000000000090
:102050000000000000000000000000000000000080
:102060000000000000000000000000000053564384
:10207000616C6C00000000000000000044656275A7
:10208000674D6F6E69746F72000000000000000001
:102090000000000000000000000050656E64535610
:1020A0000000000000000000005379735469636B66
:1020B0000000000000000000444D4130000000001E
:1020C00000000000000000444D413100000000000D
:1020D000000000000000444D4132000000000000FC
:1020E0000000000000444D413300000000000000EB
:1020F00000000000444D41340000000000000000DA
:10210000000000444D4135000000000000000000C8
:102110000000444D413600000000000000000000B7
:1021200000444D41370000000000000000000000A6
:10213000444D413800000000000000000000004451
:102140004D41390000000000000000000000444D37
:1021500041313000000000000000000000444D410B
:10216000313100000000000000000000444D41310A
:102170003200000000000000000000444D413133F7
:1021800000000000000000000000444D4131340018
:10219000000000000000000000444D413135000007
:1021A0000000000000000000444D415F4572726F66
:1021B000720000000000004D434D000000000000D0
:1021C0000000000000004654464C000000000000E3
:1021D0000000000000526561645F436F6C6C6973BE
:1021E000696F6E004C56445F4C565700000000006B
:1021F0000000004C4C5700000000000000000000F0
:1022000000005761746368646F670000000000009D
:1022100000524E47000000000000000000000000D7
:102220004932433000000000000000000000004977
:102230003243310000000000000000000000535055
:102240004930000000000000000000000053504929
:10225000310000000000000000000000535049322F
:10226000000000000000000000000043414E305F0D
:102270004F525F4D425F6275660043414E305F4290
:1022800075735F4F666600000043414E305F4572D4
:10229000726F72000000000043414E305F54785F5F
:1022A0005761726E696E6743414E305F52785F5777
:1022B00061726E696E6743414E305F57616B655F57
:1022C00055700000005265736572766564353100A3
:1022D0000000000052657365727665643532000057
:1022E00000000043414E315F4F525F4D425F6275C7
:1022F000660043414E315F4275735F4F6666000072
:102300000043414E315F4572726F72000000000061
:1023100043414E315F54785F5761726E696E674317
:10232000414E315F52785F5761726E696E6743410B
:102330004E315F57616B655F5570000000526573E9
:10234000657276656435390000000000526573657A
:1023500072766564363000000000005541525430FA
:102360005F52585F54580000000055415254305F8E
:1023700045525200000000000055415254315F5256
:10238000585F54580000000055415254315F455287
:102390005200000000000055415254325F52585F15
:1023A00054580000000055415254325F45525200CB
:1023B000000000000055415254335F52585F54589A
:1023C0000000000055415254335F45525200000056
:1023D00000000055415254345F52585F5458000079
:1023E000000055415254345F455252000000000035
:1023F0000055415254355F52585F54580000000058
:1024000055415254355F45525200000000000041D2
:102410004443300000000000000000000000414480
:1024200043310000000000000000000000434D5058
:10243000300000000000000000000000434D50315B
:102440000000000000000000000000434D5032007A
:102450000000000000000000000046544D30000065
:1024600000000000000000000046544D3100000054
:10247000000000000000000046544D320000000043
:1024800000000000000000434D5400000000000068
:102490000000000000005254430000000000000053
:1024A0000000000000526573657276656438330081
:1024B00000000000504954300000000000000000FF
:1024C00000000050495431000000000000000000EE
:1024D00000005049543200000000000000000000DD
:1024E00000504954330000000000000000000000CC
:1024F0005044423000000000000000000000005581
:10250000534230000000000000000000000055535E
:1025100042444344000000000000000000454E45D6
:10252000545F313538385F54696D6572454E455496
:102530005F5472616E736D69740000454E45545F5F
:1025400052656365697665000000454E45545F45F8
:1025500072726F72000000000049325330000000B8
:102560000000000000000000534448430000000049
:102570000000000000000044414330000000000063
:102580000000000000004441433100000000000052
:10259000000000000054534930000000000000001B
:1025A000000000004D434700000000000000000054
:1025B0000000004C5054696D65720000000000007E
:1025C0000000526573657276656431303200000038
:1025D00000504F5254410000000000000000000075
:1025E000504F525442000000000000000000005014
:1025F0004F52544300000000000000000000504F04
:1026000052544400000000000000000000504F52EF
:102610005445000000000000000000005265736592
:10262000727665643130380000000052657365725F
:10263000766564313039000000005265736572764A
:102640006564313130000000005265736572766553
:102650006431313100000000526573657276656443
:102660003131320000000052657365727665643165
:102670003133000000005265736572766564313154
:10268000340000000052657365727665643131353F
:102690000000000052657365727665643131360062
:1026A0000000005265736572766564313137000051
:1026B0000000526573657276656431313800000040
:1026C000005265736572766564313139000000002F
:1026D00000B0034000B00B40008003400090034076
:1026E00000800B4000F00F4040F00F4080F00F40A2
:1026F000C0F00F4000F10F40F0000A1D300018003C
:1027000032001801600018186400181A6E00181FB3
:10271000780013187D00131A8200131C8C000E120F
:1027200096000E15A0000E18AA000E1BB4000E1E77
:10273000C8000C1CE1000B1EFA000A1F000109086A
:102740000090044000A0044000B0044000C00440D9
:1027500000D0044000A0064000B0064000C0064083
:1027600000D0064000A00E4000B00E400000000067
:102770000000000000000000000000000000000059
:102780000000000000000000000000000000000049
:102790000000000000000000000000000000000039
:1027A0000000000000000000000080400000004029
:1027B0000000A04100002041000090400000000007
:1027C00000000000460000008C000000E80300004C
:1027D00000000000000000000000000000000000F9
:1027E00000000000000000000000000000000000E9
:1027F00001000400010000000100030002000300CA
:1028000003000000FEFFFEFFFEFF0400FEFF0000CD
:1028100002040101B810FF1F0811FF1FB810FF1FAD
:10282000B810FF1F00000000B810FF1F00000000DC
:10283000200DFF1F0C0DFF1F000000000000000016
:102840000000000000000000000000000000000088
:102850000000000000000000C0530000C053000052
:10286000C0530000C0530000C0530000C05300001C
:10287000C0530000FFFFFFFFFFFFFFFFC253000038
:10288000C0530000C0530000FFFFFFFFFFFF000028
:102890000821814A136853F40023136000BF1368B2
:1028A00033F48033136000BF0B46591EDBB2002B9C
:1028B00014D00306136803D423F40033136002E03A
:1028C00043F400331360136853F48033136000BF84
:1028D000136823F4803313604000E5E7704700007D
:1028E00008216D4A136823F400231360136823F44E
:1028F000803313600B46591EDBB2002B14D0030645
:10290000136803D423F40033136002E043F400336C
:102910001360136853F48033136000BF136823F40B
:10292000803313604000E5E7704710B50446A1F11D
:102930005000C0B2FFF7D4FF2046000940F010005D
:10294000FFF7CEFF04F00F042046BDE81040C7E7B4
:1029500070B50446002508E02046FFF799FF761C75
:102960003046C0B28028F7DB6D1C2846C0B208286C
:102970000CDAA5F15000C0B2FFF7B2FF0120FFF75B
:10298000AFFF1020FFF7ACFF0026E9E770BD07E0BE
:1029900043F226410A46511E92B2002AFAD1401E45
:1029A000014689B20029F3D1704710B53B484FF476
:1029B0008071016041608160C160374C4FF47020CC
:1029C0006061206840F480302060206820F480201E
:1029D00020603220FFF7DBFF206840F48020206079
:1029E000AE20FFF77DFF0020FFF77AFF1020FFF7F2
:1029F00077FF4020FFF774FF8120FFF771FFCF20A2
:102A0000FFF76EFFA120FFF76BFFC820FFF768FFFD
:102A1000A620FFF765FFA820FFF762FF3F20FFF722
:102A20005FFFD320FFF75CFF0020FFF759FFD520A1
:102A3000FFF756FF8020FFF753FFD920FFF750FF25
:102A4000F120FFF74DFFDA20FFF74AFF1220FFF7D2
:102A500047FFDB20FFF744FF4020FFF741FF202026
:102A6000FFF73EFF0220FFF73BFF8D20FFF738FF07
:102A70001420FFF735FFA420FFF732FFA620FFF751
:102A80002FFFAF20FFF72CFF0020FFF761FF002191
:102A90000846BDE8104048E780F00F4040B00440D1
:102AA00038B51446FFF741FF203C00250BE000BF7E
:102AB00042A1224692B202EB420301EB4301085CC1
:102AC000FFF7E6FE6D1C2846C0B20628EFDB31BDDD
:102AD0002DE9F84F0C4600F1120500F10C06871D98
:102AE00093464FF00A084FF064094FF47A7ABBF12D
:102AF000000F33D5CBF1000B2D22FFF7D1FF0FFADA
:102B00008BFB50469BFBF0F00AFB10BA48469AFB41
:102B1000F0F2303292B221463846C0B2FFF7C0FF21
:102B200048469BFBF0F009FB10B9404699FBF0F2D8
:102B3000303292B221463046C0B2FFF7B1FF404674
:102B40009BFBF0F008FB10B808F13008424692B247
:102B500021462846C0B2BDE8F84FA1E72022FFF782
:102B60009FFF50469BFBF0F00AFB10BA48469AFBC9
:102B7000F0F2303292B221463846C0B2FFF790FFF1
:102B800048469BFBF0F009FB10B9404699FBF0F278
:102B9000303292B221463046C0B2FFF781FF404644
:102BA0009BFBF0F008FB10B808F13008424692B2E7
:102BB00021462846C0B2BDE8F84F71E7000000008A
:102BC00000000000002F00000000070007000014B4
:102BD0007F147F1400242A7F2A12006264081323C2
:102BE00000364955225000000503000000001C2259
:102BF0004100000041221C000014083E0814000897
:102C0000083E0808000000A0600000080808080846
:102C1000000060600000002010080402003E5149DE
:102C2000453E0000427F400000426151494600217C
:102C300041454B31001814127F1000274545453996
:102C4000003C4A49493000017109050300364949F1
:102C5000493600064949291E0000363600000000AA
:102C600056360000000814224100001414141414F5
:102C7000000041221408000201510906003249599E
:102C8000513E007C1211127C007F49494936003EBA
:102C900041414122007F4141221C007F4949494175
:102CA000007F09090901003E4149497A007F08086F
:102CB000087F0000417F4100002040413F01007F2C
:102CC00008142241007F40404040007F020C027FF8
:102CD000007F0408107F003E4141413E007F09090A
:102CE0000906003E4151215E007F09192946004630
:102CF000494949310001017F0101003F4040403F07
:102D0000001F2040201F003F4038403F0063140850
:102D1000146300070870080700615149454300002B
:102D20007F41410000552A552A55000041417F004E
:102D30000004020102040040404040400000010243
:102D40000400002054545478007F4844443800382C
:102D50004444442000384444487F003854545418B4
:102D600000087E0901020018A4A4A47C007F0804C6
:102D700004780000447D4000004080847D00007F96
:102D8000102844000000417F4000007C04180478B3
:102D9000007C0804047800384444443800FC2424AF
:102DA00024180018242418FC007C08040408004897
:102DB0005454542000043F444020003C4040207CB8
:102DC000001C2040201C003C4030403C00442810A7
:102DD0002844001CA0A0A07C004464544C4414145B
:102DE000141414142DE9F04781460D4690461E46F2
:102DF00000280BD0012801D0022802D12846012842
:102E000004DD2E210FF2903000F002FA4FF47A7AAE
:102E1000DFF8784320680AFB00F04010404504D2F8
:102E20002F210FF2743000F0F3F9B9F1000F04D044
:102E3000B9F1020F63D04BD314E0DFF85403C1683B
:102E400041F08071C1602846072800F2C480DFE8A5
:102E500000F004151B21272D33394FF480614120E8
:102E600000F092FA20680AFB00FA4FEA6A0A50461C
:102E7000000CB0FBF8F080B2002458E04FF4407131
:102E8000042000F081FAEDE74FF44071052000F0D6
:102E90007BFAE7E74FF44071062000F075FAE1E7AE
:102EA0004FF44071072000F06FFADBE74FF48061C8
:102EB000652000F069FAD5E74FF48061662000F0E4
:102EC00063FACFE74FF48061672000F05DFAC9E74D
:102ED000DFF8BC02C16841F00071C160280002D077
:102EE000012806D077E04FF440710C2000F04CFA36
:102EF000B8E74FF440710D2000F046FAB2E7DFF872
:102F00009002016841F080710160280002D0012820
:102F100006D060E04FF440710A2000F035FAA1E7D6
:102F20004FF440710B2000F02FFA9BE7641C014620
:102F300021410129FADA2046C0B2082805DB4FF406
:102F400086710FF2542000F063F92AFA04FABAFBF2
:102F5000F8F189B2B9F1000F03D0B9F1020F08D02E
:102F60000DD2481C464342F21070B6FBF0F0074603
:102F700005E0481C46436420B6FBF0F00746DFF846
:102F8000140250F8292002F10C0353F8353023F0D5
:102F900004030C3242F8353050F829200C32282333
:102FA00042F83530E4B204F0070444F0280450F845
:102FB0002920146050F829209160002150F8292020
:102FC000D16450F8291001EBC501BFB20F61002197
:102FD00050F829004160BDE8F087F8B507460C4677
:102FE000154638000CD0012801D0022802D1204615
:102FF000022805DB40F247110FF29C1000F008F99F
:10300000002F03D0022F29D01DD309E042F2107007
:10301000854205D94FF4A6710FF27C1000F0F8F844
:10302000DFF8700150F8271088680028F8D0002FCA
:1030300002D0022F1BD01FD2401C454342F2107019
:10304000B5FBF0F618E042F210708542E8D94FF473
:10305000A8710FF2441000F0DBF8E1E7642DDFD92E
:103060004FF4AA710FF2301000F0D2F8D8E7401CEC
:1030700045436420B5FBF0F601EBC4000661F1BDE9
:1030800010B50446012806D0022804D04FF435714B
:1030900041A000F0BDF82046012802D0022810D03F
:1030A0001FE03B48C16841F00071C1604FF4E0612E
:1030B0000C2000F069F94FF4E0610D2000F064F994
:1030C00015E03348016841F0807101604FF4C06140
:1030D0000A2000F059F94FF4C0610A2000F054F9B9
:1030E00005E04FF4477100BF2BA000F091F829488C
:1030F00050F824104A6D42F004024A6550F824103A
:10310000D1F8802042F00802C1F88020002150F858
:103110002420D1644FF6FF7150F82420916050F8BC
:103120002410D1F8802042F00102C1F8802050F82C
:1031300024104A6D42F001024A65002150F8240033
:10314000416010BD10B50446012806D0022804D005
:1031500040F2393110A000F05BF80E4850F824001E
:10316000406800B210BD000010B50446012806D02A
:10317000022804D040F2473107A000F049F80020AF
:10318000044951F82410486010BD0000B410FF1F1E
:1031900030800440A40BFF1F5A3A5CE7A7A6E5A0C5
:1031A00082E79A93E79A84E8BDA65C534D555F4B3E
:1031B00036305F4C69625F312E305F466F725F421E
:1031C000616C616E63655F4D5055363035305F58C8
:1031D0005C436869705C7372635C4D4B36305F664C
:1031E000746D2E6300000000DFF800F07F0DFF1FFC
:1031F000DFF800F09F0DFF1FBFF34F8F39490A68BA
:1032000002F4E062384802430A60BFF34F8FFEE7E2
:1032100080B50A464FEA000152A000F0E9F8FEE747
:1032200010B50446214649B2042000F0D1F92046E9
:1032300010BD000010B50024042000F023FA042083
:1032400000F04FFA00281AD1204600F05FFA24E07F
:10325000002000F076FA642000F09EFA042000F0CE
:1032600040FA0028F4D0042000F03BFA012807D1EE
:10327000002000F066FA322000F08EFAF3E710BD6D
:1032800021A000F0B5F8FFF7AFFF642000F084FA4A
:103290000020FFF7ADFFFFF7AFFF042000F021FA99
:1032A000012801D101200446002000F04AFA00BFA5
:1032B00010A000F09DF84FF4FA7000F06DFA20466F
:1032C0000128EAD1042000F00CFA0028E5D1C5E776
:1032D000064801780648C1EB0112024412A000F032
:1032E00087B800000CED00E00400FA0504ED00E0F2
:1032F0009404FF1F0ABDF8C8EBCBC0D1ADBBB7B576
:10330000C8B4FDA3A10000000ABDF8D0D0BDE2CB37
:10331000F8B2D9D7F7A3ACC7EBD6D8D0C2CBA2C8E6
:10332000EBB9CCBCFE0000000A2A2A2A2A64656692
:1033300061756C745F69737220656E746572656423
:10334000206F6E20766563746F722025642A2A2AA6
:103350002A2A0D0A0A257320496E746572727570E7
:1033600074000000417373657274696F6E2066614A
:10337000696C656420696E202573206174206C6916
:103380006E652025640A000030B4174B1C684FF4AA
:1033900000750246520995402C431C60134A0346AF
:1033A0005B1152F8232000F01F0042F8201030BCBF
:1033B000704730B40C4B1C684FF40075024652093C
:1033C00095402C431C60094A03465B1152F82320A8
:1033D00000F01F0052F820301B0A63F30A2142F864
:1033E000201030BC70470000388004400C0CFF1FD8
:1033F0000EB4C0B5024603A800210190009101ABB4
:103400000121044878440C30FDF706F806BC5DF84D
:1034100010FB00BF7F1F0000012200F01F018A4047
:103420007E49400941F820207047012200F01F0129
:103430008A407B49400941F820207047F8B506468C
:103440000D463446052863D8DFE800F00313233324
:1034500043537448C16841F48061C1604FF44071C6
:103460000F20FFF791FF4FF440710E20FFF78CFF04
:103470004EE06C48C16841F40061C1604FF4407196
:103480004320FFF781FF4FF440714420FFF77CFF9A
:103490003EE06448C16841F48051C1604FF440711E
:1034A0006320FFF771FF4FF440716220FFF76CFF5C
:1034B0002EE05C48C16841F40051C1604FF4407196
:1034C0008520FFF761FF4FF440718420FFF75CFF18
:1034D0001EE05448016841F4806101604FF440717E
:1034E0009920FFF751FF4FF440719820FFF74CFFF0
:1034F0000EE04C48016841F4006101604FF44071F6
:103500008920FFF741FF4FF440718820FFF73CFF0F
:10351000454F57F82400C17801F0F301C17057F806
:10352000240081788170300001D0012E05D13F4800
:1035300001684FF47A70414304E03D4801684FF45C
:103540007A7041432801B1FBF0F6B6B2B6F5005FE0
:1035500001DB41F6FF76B1FBF5F5A5EB0615284634
:1035600080B22028C0F2058040F2031131A0FFF79D
:103570004FFE57F82400017849093246121202F032
:103580001F0252EA4111017057F82400467057F8A3
:103590002410887A400905F01F0555EA40158D7200
:1035A00057F82400017C41F08801017457F8240089
:1035B000C17841F00C01C170F1BD1B4A034652F8BD
:1035C000232013799B06F8D592F9070008707047FD
:1035D000154A034652F8232013791B06F8D5D171FA
:1035E0007047114951F82010CA7842F02002CA7081
:1035F00040002D3040B20FE70B4951F82020D3781E
:1036000003F0DF03D37051F82010C97811F0C00F18
:1036100003D140002D3040B207E7704700E100E0E1
:1036200080E100E028800440200CFF1FAC10FF1F49
:10363000B410FF1F5A3A5CE7A7A6E5A082E79A9369
:10364000E79A84E8BDA65C534D555F4B36305F4C1E
:1036500069625F312E305F466F725F42616C616EEE
:1036600063655F4D5055363035305F585C4368694F
:10367000705C7372635C4D4B36305F756172742E93
:103680006300000070B50446082C0BDA1E4D0022C2
:103690001146285D00F08CF80321285DBDE87040DC
:1036A000FFF787BE0824184D0AE0264676B20022AE
:1036B0001146A85D00F07CF80321A85DFFF779FEB4
:1036C0002046441E40B20028EFD170BD80B50E499F
:1036D000085C00F0E3F8401E8041C043C00F40B2D8
:1036E00002BD10B50446FFF7F1FF002809D10A20FA
:1036F00000F052F82046FFF7E9FF002801D1002032
:1037000010BD012010BD00008804FF1F10B5042863
:1037100007DA012211460D4B185CBDE8104000F09D
:1037200047B8042407E001221146084823465BB24B
:10373000C05C00F03DF82046441E40B20028F2D1A3
:1037400010BD0249085C00F091B800009004FF1F12
:1037500010B40E490A6842F080720A600C4A11687F
:1037600041F00101116053680A4909684FF47A7405
:1037700091FBF4F101FB0030984202D2516888427B
:10378000FCD351688142FCD310BC7047FCED00E0D3
:10379000001000E0AC10FF1F10B5044603E04FF42A
:1037A0007A70FFF7D5FF2046441E0028F7D110BDE0
:1037B00070B504460E4615464FF48071FFF7E4FDE0
:1037C00020464011414951F82020012304F01F04F4
:1037D00003FA04F4002E04D1506920EA0404546171
:1037E00070BD53692343536151F82000002D0168D7
:1037F00003D121EA0404046070BD0C43046070BD71
:10380000324A03465B1152F82320012300F01F00C7
:1038100003FA00F00029516903D121EA0000506148
:103820007047084350617047F8B504460D46264678
:10383000761104F01F04254F57F826004069E04038
:10384000C00704D45FF0630121A0FFF7E1FC57F843
:103850002600012101FA04F4002D016803D121EAB8
:1038600004040460F1BD0C430460F1BD70B504466E
:1038700025466D1104F01F04144E56F825004069CA
:10388000E040C00703D47B2111A0FFF7C1FC012059
:1038900000FA04F456F82500C46070BD70B5044603
:1038A00025466D1104F01F04084E56F825004069A6
:1038B000E040C00703D58C2105A0FFF7A9FC56F80E
:1038C00025000069E04000F0010070BDB00BFF1F53
:1038D0005A3A5CE7A7A6E5A082E79A93E79A84E8BC
:1038E000BDA65C534D555F4B36305F4C69625F310E
:1038F0002E305F466F725F42616C616E63655F4D33
:103900005055363035305F585C436869705C73726F
:10391000635C4D4B36305F6770696F2E630000004B
:10392000DFF800F0A90EFF1FA74931F82010401E54
:10393000102880F00B81A54800220270312901DA9D
:1039400042705BE0612902DA0122427056E091295F
:1039500002DA0222427051E0C12902DA03224270E7
:103960004CE0F12902DA0422427047E040F22112D1
:10397000914202DA0522427040E040F25112914237
:1039800002DA0622427039E040F28112914202DAF4
:103990000722427032E040F2B112914202DA08226C
:1039A00042702BE040F2E112914202DA09224270A9
:1039B00024E040F21122914202DA0A2242701DE014
:1039C00040F24122914202DA0B22427016E040F2AC
:1039D0007122914202DA0C2242700FE040F2A122E1
:1039E000914202DA0D22427008E040F2D122914267
:1039F00002DA0E22427001E00F2242701A2902DA26
:103A0000002282704EE0332902DA0122827049E0FE
:103A10004C2902DA0222827044E0652902DA03228C
:103A200082703FE07E2902DA042282703AE0972910
:103A300002DA0522827035E0B02902DA06228270AD
:103A400030E0C92902DA072282702BE0E22902DA8B
:103A50000822827026E0FB2902DA0922827021E026
:103A6000B1F58A7F02DA0A2282701BE040F22D1241
:103A7000914202DA0B22827014E0B1F5A37F02DAE0
:103A80000C2282700EE040F25F12914202DA0D22A7
:103A9000827007E0B1F5BC7F02DA0E22827001E08D
:103AA0000F2282701A2902DA0021C170704733296F
:103AB00002DA0121C17070474C2902DA0221C1707B
:103AC0007047652902DA0321C17070477E2902DA46
:103AD0000421C1707047972902DA0521C17070472F
:103AE000B02902DA0621C1707047C92902DA07211C
:103AF000C1707047E22902DA0821C1707047FB29C2
:103B000002DA0921C1707047B1F58A7F02DA0A2111
:103B1000C170704740F22D12914202DA0B21C17040
:103B20007047B1F5A37F02DA0C21C170704740F2F3
:103B30005F12914202DA0D21C1707047B1F5BC7F6E
:103B400002DA0E21C17070470F21C170704738B57D
:103B50000546FFF7E9FE1E4C607800F0FD0060703E
:103B6000607840F010006070B8202070A079C00626
:103B7000FCD4A079C0F381000228FAD11348C3789D
:103B8000827841780078FFF7CBFE0F4800EB850084
:103B9000817801F01F012171C17801F01F0141F00E
:103BA00040016171A1798906FCD5A1794906FCD54E
:103BB000217801F03F012170A179C1F3810103292E
:103BC000FAD10088C0B232BDC40BFF1F080CFF1F22
:103BD0000040064080B52F2000F044F90A2000F094
:103BE00041F9092000F03EF92E2000F03BF90820B1
:103BF000BDE8024000F036B9F0B400230FE000EB5E
:103C0000450434F8026C30F81570BE4203D224F833
:103C1000027C20F815606D1EAB42F0DB5B1C93420A
:103C200001DA4D1EF8E7F0BC70472DE9FC47064667
:103C300089464FF0000ADFF81472B7F80080544646
:103C4000DFF80C523088A0EB080000F029FA00F0F1
:103C500039FA22462B46FDF79BFCCDE90001B889D5
:103C6000A0EB0808404600F01BFA00F02BFA0246D1
:103C70000B46DDE90001FDF759FF00F047FAC9F8EE
:103C80000000B7F802807088A0EB080000F008FA86
:103C900000F018FA22462B46FDF77AFCCDE9000128
:103CA000F889A0EB0808404600F0FAF900F00AFA9B
:103CB00002460B46DDE90001FDF738FF00F026FA69
:103CC000C9F80400B7F80480B088A0EB080000F041
:103CD000E7F900F0F7F922462B46FDF759FC0446B8
:103CE0000D46388AA0EB0808404600F0D9F900F0EC
:103CF000E9F902460B4620462946FDF717FF00F07A
:103D000005FAC9F8080016E059F82A004FF07E516C
:103D100000F030FA02D2084649F82A0059F82A0081
:103D2000DFF8301100F038FA03D8DFF82C0149F839
:103D30002A000AF1010ABAF1020FE5DDBDE8F387B6
:103D400070B514460A8806461546751B15F1040F12
:103D500002DA052D00DB10465A1E06E001EB420593
:103D600035F8025C21F81250521E002AF6DC088059
:103D7000002004E031F8102024F81020401C984264
:103D8000F8DB5D1C05EBD5767610324619462046E9
:103D9000FFF732FF04EB460030F8020C70BD70B53F
:103DA000002414E000212F2000F02CF925F8140045
:103DB00005EB440500210A2000F024F9A5F8640071
:103DC0000021082000F01EF9A5F8C800641CDFF8E7
:103DD0008C50322CE6DB012232212846FFF70CFF03
:103DE0000122322105F16400FFF706FF0122322192
:103DF00005F1C800FFF700FF2888DFF86440208045
:103E0000B5F864106180B5F8C810A18005F5967604
:103E10000523324605F59C71FFF792FF20800523AC
:103E2000324605F5A2716088FFF78AFF608005239E
:103E3000324605F5A871A088FFF782FFA08004F143
:103E400008012046BDE87040EFE60000C40CFF1FEB
:103E50000088C34001401C4600401C46500FFF1F15
:103E6000380CFF1F10B504464011C0B2002802D024
:103E700001280CD017E07948416A41F000614162A5
:103E8000016821F090010160016801600FE0734852
:103E9000816941F000618161016821F41041016094
:103EA0000168016003E033216EA0FFF7B1F93E2CF9
:103EB00000F2A080DFE804F0A5A59EA59E9E9E9E30
:103EC000686E20262C32383EA5444AA5A59E9E9EAB
:103ED0009E9EA59E9EA5A59EA5A59EA550565C62EC
:103EE000686E747A80868C92A598A5A5A59E9E9EE4
:103EF0009E9EA59E9EA5A50000210720BDE810401E
:103F0000FFF742BA00210820BDE81040FFF73CBA95
:103F100000212220BDE81040FFF736BA00212320FF
:103F2000BDE81040FFF730BA00214020BDE8104046
:103F3000FFF72ABA00214120BDE81040FFF724BA5C
:103F400000219820BDE81040FFF71EBA00219920FB
:103F5000BDE81040FFF718BA00218020BDE81040EE
:103F6000FFF712BA00218120BDE81040FFF70CBA1C
:103F700000218220BDE81040FFF706BA002183200F
:103F8000BDE81040FFF700BA00212020BDE8104036
:103F9000FFF7FAB900212120BDE81040FFF7F4B97E
:103FA00000212420BDE81040FFF7EEB900212520B4
:103FB000BDE81040FFF7E8B900212620BDE8104019
:103FC000FFF7E2B900212720BDE81040FFF7DCB978
:103FD00000212A20BDE81040FFF7D6B900212B2090
:103FE000BDE81040FFF7D0B900211120BDE8104016
:103FF000FFF7CAB95FF09A011AA0BDE81040FFF7B9
:1040000007B910BD10B50446641100F00DF814484E
:1040100050F8241008680006F9D508690A6822F0EB
:1040200080020A6080B210BD10B4024652110C4BDF
:10403000890001F00C0141F0500153F82240A160C9
:10404000042153F82240E16000F01F0040F04000DE
:1040500053F82210086010BC70470000188004401C
:104060009C0BFF1F433A5C55736572735C63796602
:1040700063685C4465736B746F705C42E8BDA6E472
:10408000B8BBE68EA7312E312E305C436869705C78
:104090007372635C4D4B36305F6164632E63000066
:1040A000C2175040801AB0FA80F10AD08840D1F18E
:1040B0009D01D20742EAC151020672F1004241EB72
:1040C00010207047C0F3C75181B1FF2906D0C1103D
:1040D000400721F0E04101F16051704741020CBFFF
:1040E00040F4E0016FF000410020704700F0004113
:1040F00000020AD0B0FA80FC00FA0CF001F1605125
:10410000A1EB0C5101EBD0214005704701F00042BA
:104110008B1AA3F16051B1F5801F0ADBB1F17F6FFB
:104120001FD242EAC102C10071F1004142EB50705E
:1041300070470B15C3F10903212B10D2890241EA04
:10414000905180020128494141F0004121FA03F0D9
:10415000C3F12003994071F10041504170471000B4
:1041600070476FF0000013EB103F5CBF000E42EA97
:10417000C05070474FF0807C1CEB400F94BF1CEB8D
:10418000410F05E040EA010C1CEB0C0F01D2884204
:10419000704718BF814270474FF0807C1CEB400F86
:1041A00094BF1CEB410F05E040EA010C1CEB0C0F27
:1041B00001D28142704718BF8842704780B5012202
:1041C00011466E20FFF7F4FA012211466F20FFF727
:1041D000EFFA23216E20FFF7ECF823216F20BDE8D2
:1041E0000440FFF7E6B804E0022211464A1E002907
:1041F000FBD10146481E0029F6D1704780B5012148
:104200006F20FFF7FDFA01216F20FFF70DFB012161
:104210006E20FFF709FB0420FFF7E5FF00216F2068
:10422000FFF702FB0420FFF7DEFF00216E20BDE850
:104230000440FFF7F9BA80B501216F20FFF7E0FADB
:1042400000216E20FFF7F0FA00216F20FFF7ECFA53
:104250000420FFF7C8FF01216E20FFF7E5FA0121D6
:104260006F20FFF7E1FA0420BDE80240BBE710B57C
:10427000044600216E20FFF7D7FA01216F20FFF7D7
:10428000BFFA002C04D000216F20FFF7CDFA03E025
:1042900001216F20FFF7C8FA0220FFF7A4FF0121D8
:1042A0006E20FFF7C1FA0220FFF79DFF00216E206C
:1042B000BDE81040FFF7B8BA10B5002421466F20C2
:1042C000FFF79EFA01216E20FFF7AEFA0220FFF7FA
:1042D0008AFF6F20FFF7E2FA002808D0641C20460E
:1042E000C0B2FB28F5DBFFF7A6FF012010BD0021BF
:1042F0006E20FFF799FA002010BD38B50446082556
:1043000001216F20FFF77CFA00216E20FFF78CFA65
:104310002846451EC0B200281DD0200604D4002126
:104320006F20FFF781FA03E001216F20FFF77CFA8D
:1043300064000220FFF757FF01216E20FFF774FA97
:104340000220FFF750FF00216E20FFF76DFA0220D8
:10435000FFF749FFDCE7BDE83140ADE770B5044643
:10436000002529466F20FFF74BFA2E4615E0002165
:104370006E20FFF759FA0220FFF735FF01216E206A
:10438000FFF752FA6D006F20FFF788FA002800D07F
:104390006D1C0120FFF727FF761C3046C0B20828AD
:1043A000E5DB002C03D10020FFF761FF02E00120D4
:1043B000FFF75DFF2846C0B270BD70B504460D46DC
:1043C0001646FFF71BFF64002046C0B2FFF795FFBB
:1043D0002846FFF792FF3046FFF78FFFBDE8704099
:1043E00029E770B504460D461646FFF707FF64003F
:1043F0002046C0B2FFF781FF2846FFF77EFF012E5F
:1044000001D1FFF718FFFFF7F9FE44F00104204641
:10441000C0B2FFF772FF0020FFF7A0FF0446FFF7CE
:104420000AFF204670BD000080B5FFF7C7FE64207C
:10443000FFF7B2F900226B216820FFF7BEFF0A20C8
:10444000FFF7AAF900226C216820FFF7B6FF0A20C7
:10445000FFF7A2F9072219216820FFF7AEFF0A2013
:10446000FFF79AF904221A216820FFF7A6FF0A2015
:10447000FFF792F908221B216820FFF79EFF0A2010
:10448000FFF78AF900221C216820FFF796FF0A2017
:10449000FFF782F900226A216820FFF78EFF0A20C9
:1044A000FFF77AF9022237216820FFF786FF0A20FA
:1044B000FFF772F95D480021016041608160C160D1
:1044C000016141618161C161016241628162C162D8
:1044D00000F11801BDE8044041E038B5044600226F
:1044E00021466820FFF77DFF05461420FFF77BFE7D
:1044F0000022641C2146C9B26820FFF772FF10EB4E
:10450000052000B232BD10B504463B20FFF7E5FFA1
:10451000FFF7C6FDE16800F08DF820603D20FFF751
:10452000DCFFFFF7BDFD216900F084F860603F20EB
:10453000FFF7D3FFFFF7B4FD616900F07BF8A060DF
:1045400010BD10B504464720FFF7C7FFFFF7A8FDD1
:10455000616900F06FF836490860A06010BD2DE970
:10456000F84305460C4600263746B046B14615E0EE
:10457000761C0120FFF710F92846FFF7C4FF2868D2
:10458000394600F097F807466868414600F092F80F
:104590008046A868494600F08DF88146C82EE7DBC2
:1045A0003046FFF77DFD06463846314600F0F4F808
:1045B000E8604046314600F0EFF828614846314651
:1045C00000F0EAF8686100252E462F46A84615E05F
:1045D0006D1C0120FFF7E0F82046FFF7B2FF2068CE
:1045E000314600F067F806466068394600F062F828
:1045F0000746A068414600F05DF88046C82DE7DB1D
:104600002846FFF74DFD05463046294600F0C4F820
:10461000E0603846294600F0BFF820614046294650
:1046200000F0BAF86061BDE8F1830000140FFF1FCD
:104630004C0FFF1F90EA010F40F1428081F00041D2
:10464000421A3CBF801A89184FF0004CC0F3C75281
:10465000FF2A24D0C1F3C75313B3D21AD2F11903DE
:1046600027DD4CEA01214CFA03F321EA0303D14090
:10467000C20D4CEA0020401834BF20EA0C004CEA7E
:104680005000D20553EA006373EB0C0C52EB102080
:10469000420012F1807F38BF7047C00DC0057047DF
:1046A000490212BF9A4200EB5120F8E7D2F11703FA
:1046B000D9D5704790EA010F7FF5C2AF81F0004174
:1046C000431A4FF000423EBF5340C01AC91800BF02
:1046D000D3095FEAD05C13EB400F34BFB3EB410F5B
:1046E00040E07CEBD1530CD342EA012122D8D1EB3C
:1046F000402009D3400A28BF5FEA500140EBCC506C
:104700007047401A15D04002B0FA80F2521C904017
:10471000400A4FEA3C23B3EB026384BF00EB730013
:1047200007E040F400001A16DB07C2F10102D04096
:1047300018437047182BFCDC31FA03F202FA03F33A
:10474000591A38BF42F00102D2EB40203CBF400072
:10475000ACF1010C5FEACC5CC20572F100414CEB9C
:104760005020704713EB400F0FD2C94209D0ACEB79
:10477000D153022B03DB4902172BDDDD7047914338
:10478000401AC042D5D10020704713EB410FD0D35F
:104790006FF000007047000010B5FF2313EAD054FB
:1047A0001DBF13EAD1529C429A4239E0A41ADA079B
:1047B00080EA0103134042EA012142EA0020421A42
:1047C0003CBF641E01EB4202090AB2FBF1FE01FB91
:1047D0001E221202B2FBF1F001FB10226EF30F2039
:1047E0001202B2FBF1FE4EEA00207F3406DDFE2C01
:1047F00024DA53EA500050EBC45010BDD4F1020447
:1048000001FB1E2240F08071192C1DDC21FA04F0FE
:10481000C4F12004A140114371F10042584110BD80
:104820009C421ABF03EAD1529A420FE080EA010E7D
:104830000EF00043400004D0490016D143F0FF4081
:1048400010BD490008BFD343180010BD9C4205D1DC
:10485000D21AF7D001F00041484010BD4A0212BF01
:104860000846484000F0004010BD4AB90902B1FABC
:1048700081F2914044B1A418C00140F000409EE78D
:10488000C90141F0004152420002B0FA80F4A04058
:10489000141B94E77F218170C170017041707047D3
:1048A00080B54FF416510120FEF7C8FD0FF28101CB
:1048B0003F2000F0D5F80120FEF79EFE0120BDE864
:1048C0000240FEF78EBE10B55B4CA07A00282ED1B8
:1048D00094F90900002806D1022060726FF04401AB
:1048E0000120FEF775FE94F90900022805D1206920
:1048F000401C2061002060610AE0052805D10020ED
:1049000020616069401C606102E0002020616061FC
:104910002069B42802DA6069B42808DB7F2060705F
:104920002070E070A070002060722061606110BD96
:104930001CB500208DF8000069460120FEF73DFE01
:104940003D4C207A9DF80010FF2904D1002802D1A7
:104950000120207213BD002801D10021E16001284F
:104960004FD1E068032806DA9DF80010221D11548B
:10497000401CE06013BD9DF80000FF2841D10020DD
:104980002072E0602079BB280FD194F90900022839
:104990001FD160796070A0792070052060726FF07F
:1049A00033010120FEF714FE13E0CC280AD194F95C
:1049B000090005280DD16079E070A079A070002071
:1049C000607206E07F2060702070E070A0700020B0
:1049D0006072E068002814D12079AA2811D1A07A49
:1049E000002802D10120A07201E0401CA072A07A30
:1049F000042801DB0020A072E07A002801D1012008
:104A0000E07213BD80B500200B4949780A467C3A14
:104A1000082A03D37F390846FFF742FB00F05AF813
:104A200000F0BEF8054988880988401AFFF738FB6E
:104A3000BDE8024000F07DB8F00EFF1F380CFF1FEC
:104A400010B50446001204EBD0504012B4EB4020E5
:104A500003D01E210CA0FEF7DBFB0948046010BD4B
:104A600070B504460D46074E05480068B04204D0B4
:104A70005FF0300104A0FEF7CBFB46F8245070BD78
:104A800008ED00E00000FF1F5A3A5CE7A7A6E5A08A
:104A900082E79A93E79A84E8BDA65C534D555F4B35
:104AA00036305F4C69625F312E305F466F725F4215
:104AB000616C616E63655F4D5055363035305F58BF
:104AC0005C436869705C7372635C6D6973632E63C9
:104AD00000000000C0F3C7517E390EDDC217D1F1CE
:104AE000200106DD000240F00040C8401044504064
:104AF0007047D04380F000407047002070470000AE
:104B000010B541F268034FF4967200210120FEF7C0
:104B100069F942F210740023224601211846FEF77B
:104B200061F90023224602211846BDE81040FEF735
:104B300059B9F8B5334C2569656120610646A0680E
:104B4000314600F06DF83049FFF7B4FD07463046B6
:104B50002946FFF76FFDE16800F062F83946FFF77C
:104B6000A9FDFFF7B7FFA0616168884201DBA16181
:104B700003E02168814200DBA161A26900210120DC
:104B8000BDE8F840FEF729BA80B520484168009199
:104B9000D0F800301FA20021143000F0ADF801BDA4
:104BA00038B51A4CFFF77CFA0246154618480068DB
:104BB000FFF776FA01462A4604F1140000F0B9F82E
:104BC000FFF788FFE060A26800280CD41218226169
:104BD00001210020FEF701FA002202211046BDE863
:104BE0003840FEF7FAB9121A22610022012110465C
:104BF000FEF7F3F9226902210020BDE83840FEF7F4
:104C0000ECB900001004FF1F004083452C04FF1F77
:104C1000100FFF1F000098410000A040000040401E
:104C2000FF2212EAD05C1DBF12EAD1539445934291
:104C30002BE09C44D30780EA01021A4043EA00209B
:104C400043EA0121A1FB0030C04238BF40007CF1A3
:104C50007F010BDBFE294ADA5B0842EAC15153EAC5
:104C6000006373F1004C51EB10207047D1F1080C38
:104C7000DCF120012FDB5B0810FA01F10B4320FA75
:104C80000CF073F100415041704794451CBF02EA9B
:104C9000D153934280EA010202F000421DD040004D
:104CA00019D0490017D05BB9634514D00902B1FA95
:104CB00081F39940BCEB030CC00140F00040C1E718
:104CC0000002B0FA80FC10FA0CF0B3EB0C0CC90136
:104CD00041F00041B6E71000704740000AD049009B
:104CE00008D010F1807F94BF11F1807F02E042F084
:104CF000FF407047D0437047002800D1704710B480
:104D0000002A14D0019C01701168416051688160D3
:104D10009168C16003614461002181634163016363
:104D20000162C1628162416241640164C16310BC7D
:104D3000704738B5040001D1002032BD206C60649A
:104D4000E06B2064A261E1611046FFF773FC01464D
:104D5000E1632078002840D16068FFF761FF60625E
:104D6000A168E06BFFF75CFFA16AFFF7A3FCA062FC
:104D7000606BA063206B6063E06B216CFFF75AFCF3
:104D800001462163E068FFF74BFFE062A16A6269B8
:104D90001046FFF7EFF901D2A26207E082F000426D
:104DA00008461146FFF7E6F900D2A262616AA06ADE
:104DB000FFF780FCE16AFFF77DFC01462162206974
:104DC000FFF7D8F93FD3216981F00041206AFFF74E
:104DD000D1F900D22162206A32BD0128FBD10846F8
:104DE000216CFFF727FC6168FFF71AFF6062A1687A
:104DF000E06BFFF715FFA062606BA063206B606340
:104E0000216C4FF08040FFF70BFF0146E06BFFF78E
:104E100011FC616CFFF74EFC01462163E068FFF76F
:104E2000FFFE0546E562616AA06AFFF743FC29467A
:104E3000FFF740FC216AFFF73DFC01462162206933
:104E4000FFF798F9BFD220692062C4E7DFF800F0CD
:104E5000113200003948F021017001780906FCD5B3
:104E6000007800F07100401E8041C00F7047344848
:104E7000016841F400210160416841F40021416072
:104E80002E4801780906FCD5F021017070471CB549
:104E90000446C00200902B480921C1709DF8021001
:104EA00081709DF8011041709DF800100170FFF7AE
:104EB000D1FF002801D1002016BD002C08D16FF0D1
:104EC000010240F20C41002002B0BDE8104001E0B8
:104ED000012016BD7CB50C461546264630464010CE
:104EE00006EB90708010B6EB800004D05FF0F50107
:104EF00015A0FFF7ABFF40F60100864203DBF72168
:104F000011A0FFF7A3FF00950E4884704470047051
:104F10009DF80310C1719DF8021081719DF8011078
:104F200041719DF8001001710621C170FFF792FFD9
:104F3000401E8041C043C00F76BD0000000002400B
:104F400004F00140040002405A3A5CE7A7A6E5A03D
:104F500082E79A93E79A84E8BDA65C534D555F4B70
:104F600036305F4C69625F312E305F466F725F4250
:104F7000616C616E63655F4D5055363035305F58FA
:104F80005C436869705C7372635C4D4B36305F667E
:104F90006C6173682E63000070B40F4C256826683E
:104FA00046F47F062660090601F0706141EA00714F
:104FB000120502F470021143180400F4702001433A
:104FC00006480160002000E0401C0146C9B2994239
:104FD000FAD3256070BC704700F001404480044063
:104FE00080B500F075F800F022F800F005F8FEF743
:104FF00021F900F08BF8FEE710B5294C0320FEF7ED
:10500000A6FD606001464FF47A7010FB01F121604B
:1050100024480068C0F30360401CB1FBF0F0A060BE
:105020004FF4E1310420BDE81040FEF707BA80B527
:1050300000211D4805E01D4A52F8212040F821209A
:10504000491CB1F5826FF6D3FFF7FAFC184A1949EB
:105050000B461948411A03E013F8010B02F8010B43
:105060000846411E0028F7D114490A461448411A3F
:1050700002E0002002F8010B0846411E0028F8D18A
:10508000104A11490B461148411A03E013F8010B6D
:1050900002F8010B0846411E0028F7D101BD0000AF
:1050A000AC10FF1F448004400000FF1F0000000000
:1050B0001004FF1F441F000090280000F00EFF1F87
:1050C0000C11FF1F5C0DFF1F4C4E0000E04F000055
:1050D00080B500F007F80B490A884FF6FE700240D1
:1050E0000A8001BDEFF3118072B607494CF22052DD
:1050F0000A804DF628120A80C0B2002800D162B69C
:1051000070470000002005400E20054080B500F0EB
:1051100001F8FEE780B500F017F8FFF785F9FFF713
:1051200033FD0848FFF7B6FBFFF7EAFCFFF7B8FBD3
:1051300000F024F872B600F050F8FEF74BFD62B6AE
:1051400001BD0000F00EFF1F80B50022012151209B
:10515000FEF72EFB002201215020FEF729FB002242
:1051600001215320FEF724FB012211465220FEF7B5
:105170001FFBBDE80140FDF718BC000080B5022010
:10518000FDF77EFF002211461120BDE80840FEF722
:105190000FBB10B50B4C0220FDF7D4FF206011208F
:1051A000FEF77CFB6060002803D120684042A060CD
:1051B00003E0012801D12068A0600220BDE8104072
:1051C000FDF7D2BF080FFF1F012200F01F018A4028
:1051D0002849400941F82020704710B5264C206826
:1051E00000EB80014900002000F04EF80FF22D0185
:1051F0005420FFF735FC4420FFF7E6FF206800EB62
:1052000080018900012000F03FF80FF25D01552078
:10521000FFF726FC4520BDE81040D5E710B5FFF7A5
:1052200052FBFFF7B6FFFFF7EDFBFEF7B8FD134C9F
:10523000B4F90000024600210846FDF749FCB4F924
:105240000200024600212820FDF742FCB4F90400C8
:10525000024600215020FDF73BFC0948016841F05F
:105260000101016010BD00000648016841F0010124
:105270000160704700E100E0B410FF1F380CFF1F11
:105280000C7103401C71034038B505460C0004D175
:105290005FF0240110A0FDF7BBFF0C48016841F44A
:1052A0000001016000200A4908600A4800EB05106F
:1052B000641E0460C16841F00101C1608168490851
:1052C000490081600321816031BD00003C800440C1
:1052D00000700340007103405A3A5CE7A7A6E5A0BE
:1052E00082E79A93E79A84E8BDA65C534D555F4BDD
:1052F00036305F4C69625F312E305F466F725F42BD
:10530000616C616E63655F4D5055363035305F5866
:105310005C436869705C7372635C4D4B36305F5000
:1053200049542E630000000010B507497944183134
:10533000064C7C44163404E00A68081D1144884772
:105340000146A142F8D110BD080000001400000081
:10535000EFBEFFFF1C020000F00EFF1F0000000068
:1053600000F00DF8002801D0FFF7DEFFAFF300805A
:105370000020AFF30080FFF7C9FE00F002F8012023
:10538000704700F001B8000007463846FCF7D4FD2E
:10539000FBE738B504460D46284600F005F8A8425C
:1053A00018BF0024204632BD0149FDF739BF00BFB8
:1053B000DC0CFF1FAFF30080AFF30080FFF7D0FFDE
:0453C00000002E00BB
:04000005000053B5EF
:00000001FF
