:10000000F8FF0020110400003B2D00003B2D0000F4
:100010003B2D00003B2D00003B2D00003B2D000040
:100020003B2D00003B2D00003B2D00003B2D000030
:100030003B2D00003B2D00003B2D00003B2D000020
:100040003B2D00003B2D00003B2D00003B2D000010
:10040000FFFFFFFFFFFFFFFFFFFFFFFFFEFFFFFFFD
:1004100062B604F067FBFEE72DE9F0439FB000BF32
:1004200065A6269CDFF8E88A8DF83B4002910024FF
:100430000B944FF0FF37044691461D460AE019F829
:10044000011B0298A0470028029000F0A1800B98A1
:10045000401C0B9099F8000050B12528EFD10021E5
:100460000022059106920791089209910A9203E0F1
:100470000B98A5E041F0010119F8010F2028F9D0EF
:1004800023280CD02B2804D02D2805D0302809D0C3
:1004900080E041F00201EFE741F00401ECE741F0B8
:1004A0000801E9E741F01001E6E70D920AE00D9836
:1004B000404505DA00EB800002EB4002303A0D9235
:1004C00009F1010999F80020A2F130000A28EED3C1
:1004D00099F800002E2818BF0C9726D119F8010FA3
:1004E0002A2808D12868286009F1010950F8042B4E
:1004F00028600C9219E02D280CBF09F10109002099
:1005000000220C920BE040B90C9A424505DA02EB4E
:10051000820203EB4203303B0C9309F1010999F885
:100520000030A3F130020A2AEDD3ADF8381030467E
:1005300099F8001000F0A0FE08B119F8010B8DF831
:100540003A009DF83A00682805D199F8000068281B
:100550000CD1622106E06C2804BF99F800006C28D9
:1005600004D171218DF83A1009F1010910A8049005
:100570002A4619F8013B6946204600F061F838B96F
:1005800010AA6946204600F091F900287FF562AF75
:10059000384615E02A2888D12A682A6052F8040BC8
:1005A0002A6000280D9003D540420D9041F00401CF
:1005B00009F101098CE70000686A6C747A4C00004C
:1005C0001FB0BDE8F083622820D0682811D06A28C7
:1005D00003D06C2827D0712825D10868C01D20F0D1
:1005E00007000860D0E9002308300860194610466B
:1005F0007047002A0A680A60106803D0121D0A605A
:1006000000B217E0121D0A6080B217E0002A0A68E3
:100610000A60106803D0121D0A6040B20AE0121D81
:100620000A60C0B20AE0002A0A680A60106803D0B3
:10063000121D0A60C1177047121D0A600021704721
:1006400070B51C460D46B4F125002E69114600F028
:100650001B811C386AD0001F022867D9133843D089
:10066000093863D0801E16D0401E1ED0401E0228BE
:100670005CD9001F19D0401F00F08380401E33D08A
:10068000401E00F0CD80C01E00F0DC80801E2BD00C
:10069000C01E29D0FEE06869421C6A610A680A60CF
:1006A00052F8043B0A603354FEE095F83A00012208
:1006B000FFF789FFC5E900010023994204DA686960
:1006C000411C69612D220DE0288F810704D56869DE
:1006D000411C69612B2205E0C00722D56869411CD5
:1006E0006961202232541CE095F83A000022FFF79D
:1006F0006AFFC5E9000195F83800010711D5D5E971
:1007000000230020834208BF82420AD044F0200028
:10071000782806D1686930213154401C421C6A6136
:100720003454214668693044E86087E00868C01D99
:1007300020F007000860D0E9002308300860C5E910
:100740000023D5E90001C80F04D06869411C696124
:100750002D220DE0288F810704D56869411C69614D
:100760002B2205E0C00704D56869411C696120227D
:10077000325468693044E8602146284600F0C8F9E0
:1007800092E005F13A02507820B14FF0FF340FF6B5
:10079000502062E01078622808D0682824D06A28A7
:1007A00012D06C282ED071280ED02BE00A680A6077
:1007B00052F8040B0A6020B94FF0FF340FF63820CE
:1007C0004BE0E96A01706FE00A680A6052F8040BB6
:1007D0000A6020B94FF0FF340FF61C203DE0EA6AB2
:1007E000D317C0E900235FE00A680A6052F8040BDF
:1007F0000A6020B94FF0FF340FF6FC102DE0E96AD3
:10080000018051E00A680A6052F8040B0A6020B9BE
:100810004FF0FF340FF6E0101FE0E96A016043E09B
:100820000A680A6052F8040B0A60002120F00002F6
:1008300021F0FF33C5E90023EE607821284600F05F
:10084000BBF831E00868086050F8044B0860EC60C1
:100850003CB94FF0FF340FF6B81000F019FD201A24
:1008600070BD2E6B002E04D5204600F031FD0446ED
:1008700008E032460021204600F046FD002814BF63
:10088000041B3446AC610FE06869411C6961252294
:10089000325409E06969481C6861252272542100BC
:1008A00002D0431C6B613454002070BD2DE9FC4123
:1008B0000F46064690467A6B7869396ABC6A121A06
:1008C000B869521A796A121AF869521A121A97F804
:1008D0003800141B41070FD42020002C8DF8000095
:1008E0000ADD254601236A463946304600F060FCA1
:1008F00000285DD16D1EF5D17B69424639463046F0
:1009000000F056FC002853D130208DF800003D6ADD
:10091000002D09DD01236A463946304600F048FCC7
:10092000002845D16D1EF5D1BB69FA6839463046BD
:1009300000F03EFC00283BD130208DF800007D6A9D
:10094000002D08DD01236A463946304600F030FCB0
:1009500070BB6D1EF6D1F868B969FB69421839465B
:10096000304600F025FC18BB30208DF80000BD6A31
:10097000002D08DD01236A463946304600F018FC98
:10098000B0B96D1EF6D197F8380041070DD520207B
:10099000002C8DF8000008DD01236A4639463046F8
:1009A00000F006FC20B9641EF6D10020BDE8F681F7
:1009B0004FF0FF30BDE8F6812DE9FC4707468C4635
:1009C0003E69BCF16F0F08BF082405D04CF0200031
:1009D000782814BF0A2410243C25D7E90023BCF151
:1009E000640F18BFBCF1690F9046994606D10021EB
:1009F0008B4203DAD8F1000869EB49094FF0000A8D
:100A0000D14508BFD0451FD1386BE8B9082C4BD170
:100A100097F83800010747D530203B2586F83B0082
:100A200042E000280ED597F8380000F01400102896
:100A300008D17B6B7969386A5B1A1B1A9A1A002AEB
:100A4000C8BF3A62BDE8F3878DF800C0404649460A
:100A50002246E31700F084FC3032D0B26D1E3A28F3
:100A6000019504DB9DF80000A0F151018A18725530
:100A7000404649462246E31700F072FC894680460C
:100A8000D14508BFD04503D0F86871198842DDD33D
:100A9000082C09D197F83800010705D5705D30287A
:100AA00002D06D1E30207055C5F13C02BA6171193B
:100AB000F960386B8242B4DA821A3A624FF6EF700C
:100AC000398F01403987BDE8F3872DE9D0430646C9
:100AD0000F4614464FF00008DFF8389412E0E007A4
:100AE00007D542464B463046394600F051FD064692
:100AF0000F464046494642464B4600F049FD6410C9
:100B000080468946002CEAD130463946BDE8D0837C
:100B10002DE9F34F054641F020048DB0D5E9008959
:100B2000612C02AE09D0286B002848BF062003D4F0
:100B300008BF672C01D101202863D5E900235800A4
:100B40004015401C0ED119030CD00320A8619DF85C
:100B5000381061391A2902D20FF2D06111E00FF278
:100B6000D0610EE059004915491C0FD118030DD171
:100B70000320A8619DF8381061391A2914D30FF2A7
:100B8000B861E868032200F0D5FDD3E1194621F0F1
:100B90000043B3F5801F10460DD20027BB4208BFAB
:100BA000BA42019703D111E00FF28861E9E701AA87
:100BB00000F014FE0AE0DFF8607307EB1352DFF871
:100BC0005C3301921940DFF858331943C5E900013D
:100BD000612C0ED1E86830210170821CEA609DF81A
:100BE000381061290CBF7821582141706869801C38
:100BF0006861D5E900AB2BF0004300202AF0000229
:100C0000834204BF8242002300F05B81612C40F0EC
:100C1000AA80286B002847BF21210091401C00902A
:100C2000009F7F1C404649460022002300F00EFE34
:100C3000D94601998DF8082038BF89F00049091F6D
:100C4000002FD04601910DF1090040F34981B349CD
:100C5000DFF8D0B20C9106464046494600220023F8
:100C600000F00CFE80F03B814800400D00F11C02BA
:100C700011D0002A0FDD40F2FF70824205DB09F03F
:100C8000004040EA0B01002013E00C98014041EACB
:100C9000025140460DE029F00043002028F00002F8
:100CA000834208BF82420FBF40461C22404600F0EC
:100CB000FDFD8046894600F097FEFF1F002F044689
:100CC00009DD00F0AFFE02460B464046494600F003
:100CD000BBFE80468946F01D072104E004F00F02A8
:100CE00000F8012D2411002C01DD491EF6D5491E06
:100CF0005CBF002200F8012DF9D5ECE00020194678
:100D000002AA0A4400E05B1E12F80149491E84420F
:100D1000F9D00F2804D10DF10900425C521C425455
:100D2000002904D50198001D02AE5B1C0190591EDC
:100D300012D49DF838007218A0F13A07147804F123
:100D400030085FFA88F43A2CA8BFB844491E02F86C
:100D50000189F3D58DF83800286B002840F1B08068
:100D6000591E2963ACE0404649460022002300F0AA
:100D70006DFD019938BF89F0004947F29750414312
:100D8000694A91FBF2F20192D2F1070204DD40467A
:100D90004946FFF79AFE0AE0524200206349FFF7F6
:100DA00094FE02460B464046494600F0BFFE804690
:100DB000662C286BDFF878B106BF019F0A3706273B
:100DC0003F18142FC8BF142730208DF8080089461B
:100DD0000DF1090000E03046002F34DD06464046A4
:100DE000494600F0C7FF01460A4606F10803042001
:100DF0000A26B2FBF6F606EB860EA2EB4E02303266
:100E000003F8012C0A22B6FBF2F202EB820EA6EBEB
:100E10004E063036401E03F8026DE9D1083F002F20
:100E200003F10806D7DD084600F0B8FF02460B467E
:100E30004046494600F008FE00225B4600F0A8FB51
:100E400080468946CBE70DF10901401A0DF10906EC
:100E500004E00199491E401E0191761C3178302929
:100E6000F7D0662C02D10199491C03E0652C0CBF18
:100E7000012100212B6BCB189842B8BF431E002BD9
:100E80001ED4834204DAF05C3528A8BF392000DA8A
:100E900030201946721E02EB010800E05B1E18F8B4
:100EA0000199491E8145F9D0392802D1705C401C56
:100EB0007054002904D50198401C16465B1C019013
:100EC000019800B200901BB29DF8381032462846B7
:100ED00000F034F82EE0C61D002F3FF7BDAE3046BF
:100EE0000DF10901401A009903468842C8BF0B461C
:100EF000002B0DF109063FF52FAF8342BFF6FEAE82
:100F00000DF10900C15C07297FF7F8AE0F20F6E666
:100F1000CBCCCC0C0000244002FCFFFFFFFF0F8075
:100F20000000E03F0000F07FA08601000000F03FDD
:100F300084D797410FB0BDE8F08F00002DE9F84746
:100F400083B006468A461746984600F035FFB8F14A
:100F5000000F406A356B90F8009002DC4FF00108FA
:100F6000B6A74AF02000BDF93040662808BF641CCF
:100F700015D0672840F0848014F1040FC0F28680F9
:100F8000AC4280F2838096F83800641C010702D4DA
:100F9000A845B8BF454620B22D1A48BF00250FFA14
:100FA00084FAF068B169BAF1000F25DC4A1C3023DD
:100FB0004354002D03DC96F83800010703D5F06890
:100FC00000F80290521C15EB0A0FB8BF6C4220B219
:100FD000441941424445B8BFA046B26171620FFA5C
:100FE00088F5F561F068B3692A463946184400F07F
:100FF000A1FB641BB462C4E022B29045084417DA36
:101000004246394600F096FBB0694044B061AAEB15
:101010000801002D716203DC96F838100A0705D527
:10102000F16801F80090F069401CF061B562A8E039
:10103000394600F07FFBB069002D5044A8EB04084E
:1010400003DC96F838100A0703D5F16801F8009020
:10105000401CB0610FFA88F08542F368B069B8BFF0
:10106000A8460FFA88F207EB0A01184400F062FB69
:10107000B1690FFA88F00144B161281A706280E00A
:10108000BAF1610F14D14FF0700A16E0A84504DAE6
:1010900096F838100A0758BF45466D1E48BF002510
:1010A000BAF1670F14BF4FF0450A4FF0650A04E02C
:1010B000BAF1410F08BF4FF0500AB169F368481CFC
:1010C000B061002D17F8012B5A5403DC96F8381044
:1010D0000A071BD5F168431CB36101F80090002D8D
:1010E00014DDA8F101080FFA88F039468542F76847
:1010F000B8BFA8460FFA88F2F81800F01BFBB069D9
:101100000FFA88F108446D1AB0617562F068B16930
:101110000844002C80F800A003D42B224270811CCC
:1011200003E02D2141706442811C00206A460AE0E0
:1011300023460A2493FBF4F404EB8405A3EB450354
:1011400002F8013B401C24B2002CF1DC012806DC33
:101150004AF02002652A04BF302201F8012B48B969
:10116000302001F8010B07E0401E1DF8003030333D
:1011700001F8013B0028F7DCF268B0691044091A55
:10118000F16196F8380000F0140010280DD1726952
:10119000B169706A8A18F1698218B06A8A1882186F
:1011A000706B8242BCBF821A326204B0BDE8F08725
:1011B000F8B505460E4617461C46002074B117F8D0
:1011C000011BB068A847B06030B1F06A401CF06203
:1011D0000020641EF3D1F2BD4FF0FF30F2BD0000DD
:1011E0007072696E74665F733A20256E206469734D
:1011F000616C6C6F776564007072696E74663A201A
:1012000062616420256E20617267756D656E740081
:101210007072696E74665F733A2062616420257330
:1012200020617267756D656E740000006E616E00FE
:101230004E414E00696E6600494E4600300030B4A3
:10124000002513E050F8042BD30744BFA9F1010394
:101250009A18091F042942F8045BFAD213468C0736
:1012600044BF15809B1CC90748BF1D7050F8041B64
:101270000029E7D130BC70470278C9B28A421AB15E
:101280001CBF10F8012FF9E718BF002070470000BD
:1012900080B500B906A005490B681BB122220021C8
:1012A000984701E000F08CFD222002BDE80EFF1FF0
:1012B000636F6E73747261696E742068616E646CC2
:1012C00065723A20626164206D65737361676500C1
:1012D00000F10103810704D010F8011B820781B1DE
:1012E000FAD10268A2F10131914311F0803104BFBB
:1012F00050F8042FF6E709BAB1FA81F100EBD100FA
:10130000401CC01A70470000C9B2830706D0521EA5
:1013100022D310F8013B9942F7D11FE0083A13D3CA
:1013200002F1040241EA012141EA014150F8043B83
:10133000121F21BF4B40A3F1013C2CEA030C1CF00F
:10134000803FF3D0C9B2001F083210F8013B521E93
:1013500028BF91EA030FF8D818BF0120401E70473C
:10136000BBBBE1B1B2F5803F80F07E80022A1ED97E
:101370008C46B1FBF2F102FB11C31B0443EA10439C
:10138000B3FBF2FC02FB1C3380B240EA0343B3FB25
:10139000F2F002FB103240EA0C4000237047022AB0
:1013A00005D98446B0FBF2F002FB10C270474AB187
:1013B00005D100F0010249085FEA300070470022C1
:1013C0000023704700F000BD0B0002000021002048
:1013D0007047904271EB030CF6D3B3F5803F2FD2E8
:1013E000F0B5B3FA83F7B1FA81F4A7F10F0E3D1B04
:1013F0005340CEF1200602FA0EF2F3415340B5F10C
:101400000F0746D80F3C2C444140C4F12006A040B1
:10141000F1414140B1FBF3F603FB1611A2FB064577
:10142000001BA94102D2761E8018594180EA0102B0
:1014300021FA0EF362FA0EF200215A403046F0BD56
:1014400030B4B1FBF3FC03FB1C11A2FB0C45001BE9
:10145000A94103D2ACF1010C8018594130BC0246BD
:101460000B46604600217047B2F1807F65D3F0B52E
:10147000B2FA82F7B1FA81F4C7F10F063D1B22FAE6
:1014800006F307F1110EF24120355A40B5F10F076E
:10149000B8D94140C4F12006A040F1414140B1FB20
:1014A000F3FC03FB1C11A2FB0C45001BA94103D25A
:1014B000BCF1010C801859410F2F12D30F3FC90303
:1014C00041EA5041B1FBF3F603FB1611A2FB0645BE
:1014D000D4EBC030A94102D2761E8018594146EAA9
:1014E000CC3C07B34140C7F12006B840F141414030
:1014F000B1FBF3F603FB1611A2FB0645001BA94145
:1015000002D2761E8018594180EA010221FA0EF3B8
:10151000C7F1200462FA0EF20CFA07F05A402CFAD6
:1015200004F13043F0BD80EA010221FA0EF30021FC
:1015300062FA0EF260465A40F0BD8C46B1FBF2F101
:1015400002FB11C31B0243EA1063B3FBF2FC02FB74
:101550001C331B024CEA002043EA1063B3FBF2FC8D
:1015600002FB1C331B024CEA002043EA1063B3FB6E
:10157000F2FC02FB1C331B024CEA002043EA10631E
:10158000B3FBF2FC02FB1C324CEA00200023704744
:10159000B0B581EA030C0CF0004C40F2FF7515EA7F
:1015A00011541DBF15EA1357AC42AF4239E0E4199C
:1015B00023EA455343F48013C90241F0004141EA54
:1015C000505EC7021100A7FB020200284FF0000086
:1015D000EEFB01204FF00001E3FB072118BF42F0B2
:1015E0000102401800214941E3FB0E01A4F580648B
:1015F0000F0302D252004041494154F101046CDD15
:10160000470872F1004250F1000051EB0451A1F57E
:1016100080115CBF41EA0C01B0BD4CEA05510020CD
:10162000B0BD05EA1357AC4214BFAF4241E050EAE7
:10163000410E1CBF52EA430E02E061460020B0BDDD
:1016400024423C441BD15FEA070EF6D0090302BFD7
:1016500001460020AEF1140EB1FA81F7AEEB07049B
:1016600001FA07FE0C37C7F1200100FA07F7C8405E
:101670004EEA000E23EA455343F48013A2E733F009
:101680000043B3FA83F704BFB2FA82FE77440B3FFC
:10169000E41BB7F1200E2FBF02FA0EF3BB40C7F1D7
:1016A000200E22FA0EFE38BF43EA0E03BA40641C35
:1016B00082E750EA410E14BF52EA430E6FF0000178
:1016C0004FF4001717EB430F8ABF194617EB410F72
:1016D000B5E74CEA05510020B0BDD4F10104B4F1E6
:1016E00020070FDAC4F12007520828BF42F0010298
:1016F00010FA07F501FA07F7E1BF2A43E040384343
:10170000E1400FE0352C98DCC7F1200452EA40029A
:1017100020FA07F218BF42F0010231FA07F0A140A7
:101720000A43002172F1004250F1000051EB0C011C
:10173000B0BD000062B38B0708D0521E11F8013B08
:1017400000F8013B00F024808B07F6D1830740F0BE
:10175000208000BF103A07D330B4B1E83810103AF7
:10176000A0E83810F9D230BC530724BFB1E8081004
:10177000A0E8081044BF51F8043B40F8043BD207EE
:1017800024BF31F8022B20F8022B44BF0B780370E2
:101790007047121F17D35B0009D151F8043B20F8A2
:1017A000023B1B0C121F20F8023BF6D20BE051F853
:1017B000043B00F8013B1B0A20F8023B1B0C121FE4
:1017C00000F8013BF3D238BF121D521E24BF11F89E
:1017D000013B00F8013BF8D87047000010B51446F3
:1017E00000F002F8226010BDC1F30A5343B14A0071
:1017F00012F5001F28D2A3F2FE32A1EB025170476E
:1018000050EA410C20D001F0004C31EA0C01B1FA51
:1018100081F204BFB0FA80F3D2180B3AB2F1200380
:101820002CBF00FA03F1914041EA0C013EBFC2F126
:10183000200C20FA0CF319439040524240F2FD3341
:10184000D21A01EB03517047002270474FF4001C7D
:101850001CEB410F94BF1CEB430F09E041EA030C62
:1018600050EA4C0C52EA0C0C03D2994208BF904249
:10187000704714BF8B428242704700004FF4001C37
:101880001CEB410F94BF1CEB430F09E041EA030C32
:1018900050EA4C0C52EA0C0C03D28B4208BF824235
:1018A000704714BF9942904270470000124254D4CE
:1018B00040F2FF7C1CEA11530FD0634531D09B18D6
:1018C00063453CBF01EB0251704701F0004141EA22
:1018D0000C510020AFF30080704750EA410320D044
:1018E00001F0004C91EA0C011CD0B1FA81F30B3BE2
:1018F0009A420DD9D21A994051EA0C01C3F1200C39
:1019000020FA0CFC61449840531C40F2FF7CD7E75E
:10191000914041EA0C01C2F1200C20FA0CF319436A
:1019200090407047B0FA80F31533202BE0D3202A83
:10193000EED3203A203B9A4209D9D21A00FA03F199
:1019400041EA0C010020531C40F2FF7CB8E700FA8A
:1019500002F141EA0C0100207047524240F2FF7C44
:101960001CEA11530DD06345DBD0B2EB030C3CBF36
:10197000A1EB025170470CF1010221EA035141F43D
:10198000801150EA410CCCD001F0004C352A27DC04
:1019900030B481EA0C01B2F1200309DAC2F120036C
:1019A000044601FA03F5D0402843D1409C400CE0A6
:1019B000C3F12002450020FA03F418BF44F00104EB
:1019C00021FA03F091400C43002174F1004550F1DD
:1019D000000051EB0C01244230BC7FF47BAF704718
:1019E0006146002076E70000C1F30A5340F2FE3260
:1019F0009B1A14DDD3F120034FEAE17208DDC9021E
:101A000041EA505141F00040D840801850407047A2
:101A100003F2E13010B1D24382F000407047002061
:101A200070470000C11768B14840401AB0FA80F210
:101A30009040D21CC907C2F5846241EA025202EB0F
:101A4000D02140057047000070B44FF0004591EA86
:101A5000030F40F1C3816B40841A71EB030603D27C
:101A6000001BB141121973414FF4001C1CEB410FD4
:101A700034BF7CEB430442E00C0DA4EB1356352E2F
:101A80004FDC45EAC323DB0A45EAC121C912B6F19E
:101A900020050DDD63FA05F6EB4086EA03051242E8
:101AA00018BF45F00105C01851F100010CD213E038
:101AB00062FA06F5F2405540F3415A40B340F34014
:101AC0005A408018594107D349085FEA30005FEA5D
:101AD000350528BF45F0010501F58011420875F173
:101AE000004250F1000041EB04514E0016F5001F7A
:101AF00070BC38BF70470020090D090570471CEB0A
:101B0000410F10D252EA43060BD0BCEB410F05D86F
:101B10000C0DAB43661E342EB6DD02E0AB438018DD
:101B2000594170BC704770BC70470000F0B540F27E
:101B3000FF7581EA030C0CF0004C15EA11541DBF2F
:101B400015EA1357AC42AF42E5E0BC41C1F31301C3
:101B5000C3F31303801A994143F4801304D2641E23
:101B60004000494180185941C90241EA5051B1FB36
:101B7000F3F603FB1611A2FB0675D7EBC020A941B3
:101B800002D2761E80185941C90241EA5051B1FB78
:101B9000F3FE03FB1E11A2FB0E75D7EBC020A9417B
:101BA00003D2AEF1010E80185941890241EA9051E9
:101BB000760546EA8E2EB1FBF3F603FB1611A2FB67
:101BC0000675D7EB8020A94102D2761E80185941B4
:101BD000C90241EA50514EEA060EB1FBF3F603FB8F
:101BE0001611A2FB0675D7EBC020A94102D2761EC2
:101BF00080185941C90241EA5051B1FBF3F703FB88
:101C00001711A2FB0735D3EBC020A94167F10007EC
:101C10000CBF004247F0010766F3D5274FEA1E319B
:101C2000B80814F5806412DDBD0775F1004250EB71
:101C30000E5051EB045111F5801F5CBF41EA0C01BD
:101C4000F0BD4CF07F6141F0E0410020F0BDBD07E8
:101C50006D0840EA0E5041F48011D4F10104B4F152
:101C600020060ADAC4F120060200E04001FA06F379
:101C7000E1401843B24015430EE0342C13DCC6F1AA
:101C8000200445EA40056D0820FA06F2154321FAC2
:101C900006F0A1400D43002175F1004250F1000013
:101CA00051EB0C01F0BD00205FEA0C01F0BDCFB993
:101CB00092185B41B3FA83F704BFB2FA82F6BF19F8
:101CC0000B3FB7F120062FBF02FA06F3BB40C7F166
:101CD000200622FA06F638BF3343BA401CB1E41995
:101CE000641E33E77F4231F00041B1FA81F404BF52
:101CF000B0FA80F6A4190B3CB4F120062FBF00FA0D
:101D000006F1A140C4F1200620FA06F638BF31439F
:101D1000A0403C1B1AE7AC421ABF05EA1357AF427A
:101D200012E050EA41061CBF52EA4306BFE750EA00
:101D30004107304661461CBF41EA0551F0BD52EAF9
:101D4000430C08BFC143F0BD00204FF4001616EB52
:101D5000410F98BF16EB430F08BF16EB410F24BF8E
:101D6000C14305E016EB430F0CBF61464CEA055139
:101D7000F0BD0000400D491840EA81200CD2490D09
:101D8000A1F58061491C40F0004005DBD1F11F0145
:101D900054BFC840C017704700207047014648B183
:101DA000B0FA80F18840C91CC1F58461090501EBD6
:101DB000D02140057047000000487047E80BFF1F26
:101DC000012000F0C1B800007047000070B44FF06F
:101DD000004591EA030F7FF53FAE6B40841A71EB2B
:101DE000030604D26E40001BB141121973414FF437
:101DF000001C1CEB410F34BF7CEB430683E00C0D51
:101E0000A4EB1356362E00F37C80012E45EAC32343
:101E100041DC43EA525312BFD20292025B0824050E
:101E200045EAC12141EA5051D2EBC020994125D465
:101E300007D1B0FA80F610FA06F162D00020203601
:101E400008E0B1FA81F6B140C6F1200220FA02F2B0
:101E50001143B0404FEAF474B4EB465434F0010639
:101E60004FEA74040AD8D6F50016760D04F0004443
:101E7000F04061FA06F25040F1404840C00A40EAA2
:101E8000415021F0004128BF5FEA500550F10000A9
:101E900044EBD12135E0DB0A45EAC121C90AB6F19C
:101EA00020050EDD42EA0242120CC5F1200603FABB
:101EB00006F6EB4042EA06056D42984161F10001E9
:101EC0000DE062FA06F5F240554063FA06FC82EA3C
:101ED0000C02F3405A406D42904161EB030111F452
:101EE000801F05D1641E620502D06D00404149414A
:101EF00021F48011430875F1004350F1000041EBDB
:101F0000045170BC70471CEB410F15D223F0004305
:101F100052EA43060BD04FEA4C0CBCEB410F04D8FD
:101F20000C0D661E342EB7DDEBE7801A994150EA9E
:101F3000410608BF0021E4E708BF1CEB430F28BFA0
:101F40006FF00001DDE70000202109032631182091
:101F5000ABBEF9E76A6E6B6C676D4E4F3435363742
:101F60000000000000000000000000000000000071
:101F700000000000000000000000000000004E6FA4
:101F80006E4D61736B61626C6500000000486172A8
:101F9000644661756C740000000000004D656D4D75
:101FA000616E6167656D656E7400004275734661B0
:101FB000756C740000000000000055736167654691
:101FC00061756C740000000000000000000000005B
:101FD0000000000000000000000000000000000001
:101FE00000000000000000000000000000000000F1
:101FF00000000000000000000000000000000000E1
:102000000000000000535643616C6C0000000000AB
:102010000000000044656275674D6F6E69746F72F1
:1020200000000000000000000000000000000000B0
:10203000000050656E645356000000000000000070
:10204000005379735469636B0000000000000000C6
:10205000444D41300000000000000000000000443A
:102060004D41310000000000000000000000444D20
:1020700041320000000000000000000000444D411B
:10208000330000000000000000000000444D413417
:102090000000000000000000000000444D41350039
:1020A00000000000000000000000444D4136000028
:1020B000000000000000000000444D413700000017
:1020C0000000000000000000444D41380000000006
:1020D00000000000000000444D41390000000000F5
:1020E000000000000000444D4131300000000000BD
:1020F0000000000000444D413131000000000000AC
:1021000000000000444D413132000000000000009A
:10211000000000444D413133000000000000000089
:102120000000444D41313400000000000000000078
:1021300000444D4131350000000000000000000067
:10214000444D415F4572726F720000000000004D07
:10215000434D000000000000000000000000465455
:10216000464C0000000000000000000000526561C5
:10217000645F436F6C6C6973696F6E004C56445FAB
:102180004C565700000000000000004C4C57000067
:1021900000000000000000000000576174636864E4
:1021A0006F6700000000000000524E470000000072
:1021B0000000000000000000493243300000000031
:1021C0000000000000000049324331000000000020
:1021D00000000000000053504930000000000000E3
:1021E00000000000005350493100000000000000D2
:1021F00000000000535049320000000000000000C1
:1022000000000043414E305F4F525F4D425F6275A8
:10221000660043414E305F4275735F4F6666000053
:102220000043414E305F4572726F72000000000043
:1022300043414E305F54785F5761726E696E6743F9
:10224000414E305F52785F5761726E696E674341ED
:102250004E305F57616B655F5570000000526573CB
:102260006572766564353100000000005265736563
:10227000727665643532000000000043414E315FE4
:102280004F525F4D425F6275660043414E315F427F
:1022900075735F4F666600000043414E315F4572C3
:1022A000726F72000000000043414E315F54785F4E
:1022B0005761726E696E6743414E315F52785F5766
:1022C00061726E696E6743414E315F57616B655F46
:1022D000557000000052657365727665643539008B
:1022E0000000000052657365727665643630000048
:1022F00000000055415254305F52585F545800005E
:10230000000055415254305F455252000000000019
:102310000055415254315F52585F5458000000003C
:1023200055415254315F45525200000000000055A3
:10233000415254325F52585F5458000000005541DA
:102340005254325F45525200000000000055415285
:1023500054335F52585F54580000000055415254A6
:10236000335F455252000000000000554152543482
:102370005F52585F54580000000055415254345F7A
:1023800045525200000000000055415254355F5242
:10239000585F54580000000055415254355F455273
:1023A00052000000000000414443300000000000E3
:1023B0000000000000004144433100000000000024
:1023C0000000000000434D503000000000000000FD
:1023D00000000000434D50310000000000000000EC
:1023E000000000434D5032000000000000000000DB
:1023F000000046544D3000000000000000000000C6
:102400000046544D310000000000000000000000B4
:1024100046544D3200000000000000000000004360
:102420004D54000000000000000000000000525465
:10243000430000000000000000000000005265732F
:1024400065727665643833000000000050495430EE
:10245000000000000000000000000050495431005E
:10246000000000000000000000005049543200004D
:10247000000000000000000000504954330000003C
:102480000000000000000000504442300000000046
:102490000000000000000055534230000000000022
:1024A0000000000000005553424443440000000077
:1024B0000000000000454E45545F313538385F5408
:1024C000696D6572454E45545F5472616E736D69F6
:1024D000740000454E45545F52656365697665003A
:1024E0000000454E45545F4572726F720000000057
:1024F00000493253300000000000000000000000DE
:102500005344484300000000000000000000004465
:102510004143300000000000000000000000444182
:102520004331000000000000000000000054534947
:102530003000000000000000000000004D43470094
:1025400000000000000000000000004C5054696DC5
:10255000657200000000000000005265736572762D
:10256000656431303200000000504F525441000089
:102570000000000000000000504F525442000000D4
:1025800000000000000000504F52544300000000C3
:10259000000000000000504F5254440000000000B2
:1025A0000000000000504F525445000000000000A1
:1025B0000000000052657365727665643130380042
:1025C0000000005265736572766564313039000031
:1025D0000000526573657276656431313000000029
:1025E0000052657365727665643131310000000018
:1025F00052657365727665643131320000000052B5
:102600006573657276656431313300000000526590
:102610007365727665643131340000000052657371
:10262000657276656431313500000000526573656E
:102630007276656431313600000000526573657250
:10264000766564313137000000005265736572763B
:10265000656431313800000000526573657276653B
:10266000643131390000000000600640007006400F
:10267000008003400090034000800B4000F00F40BA
:1026800040F00F4080F00F40C0F00F4000F10F40CD
:1026900066000A1D32000701640007106E00040680
:1026A000780004088200040A8C00040C9600040ED2
:1026B000A0000410AA000412B4000414BE00041602
:1026C000C8000418D200041ADC00041CE100041D38
:1026D000E600041EEB00041FF4000317FA000318C1
:1026E000130101062C0102140001090800900440A6
:1026F00000A0044000B0044000C0044000D00440EA
:1027000000A0064000B0064000C0064000D00640D1
:1027100000A00E4000B00E40FDFDFFFFFFFFFFFFD9
:1027200001010000FDFDFFFF3C3C0000584F000090
:10273000584F0000584F0000584F0000584F0000FD
:10274000584F0000584F0000FFFFFFFFFFFFFFFF43
:102750005A4F0000584F0000584F0000FFFFFFFF86
:10276000FFFF000002040101980EFF1FE80EFF1F8B
:10277000980EFF1F980EFF1F00000000980EFF1F0D
:1027800000000000640CFF1F500CFF1F0000000041
:102790000000000000000000000000000000000039
:1027A0000000000000000000000000002DE9F84FCC
:1027B00004000D0016001F00200040B2002810D0B9
:1027C000200040B2012803D0200040B2022803D1EB
:1027D000280040B2022804DB2E21DFF8600400F05C
:1027E0004BFA4FF47A7ADFF85894D9F800000AFBD4
:1027F00000F04010B04204D22F21DFF8400400F076
:102800003BFA200040B2002803D0022864D048D30D
:102810007DE0DFF83004016851F08071016028002C
:1028200040B200280BD0022815D00ED304281ED0A9
:1028300017D3062827D020D307282AD02FE04FF41B
:102840008061412000F098FA2AE04FF440710420A2
:1028500000F092FA24E04FF44071052000F08CFA69
:102860001EE04FF44071062000F086FA18E04FF4A5
:102870004071072000F080FA12E04FF4806165207B
:1028800000F07AFA0CE04FF48061662000F074FAF0
:1028900006E04FF48061672000F06EFA00E0CCE0C3
:1028A00035E0DFF8A003016851F0007101602800F5
:1028B00040B2002802D0012806D00BE04FF440714E
:1028C0000C2000F059FA06E04FF440710D2000F0A2
:1028D00053FA00E0B1E01AE0DFF86C03016851F050
:1028E00080710160280040B2002802D0012806D083
:1028F0000BE04FF440710A2000F03EFA06E04FF47E
:1029000040710B2000F038FA00E096E0FFE7D9F8BC
:1029100000900AFB09F95FEA69094846000CB0FB20
:10292000F6FA5FF0000B504680B250FA0BF0012827
:1029300002DB1BF1010BF6E75846C0B2082805DBA5
:102940004FF48671DFF8F40200F096F9484630FA49
:102950000BF0B0FBF6F0210049B2002903D00229A8
:1029600017D00BD31FE0010089B2491C01FB07F10E
:1029700042F21072B1FBF2F1884614E0010089B214
:10298000491C01FB07F142F21072B1FBF2F18846DB
:1029900009E0010089B2491C01FB07F16422B1FB87
:1029A000F2F18846FFE7DFF8A412220052B251F894
:1029B00022202B005BB202EBC30223005BB251F872
:1029C0002330AC464FFA8CFC03EBCC03DB6833F0CE
:1029D0000403D360220052B251F822202B005BB2D4
:1029E00002EBC3022823D3605A46D2B212F0070288
:1029F00052F0280223005BB251F823301A60020023
:102A000092B223005BB251F823309A600022230077
:102A10005BB251F82330DA64220052B251F822201E
:102A20002B005BB202EBC30243469BB21361002250
:102A300023005BB251F823104A60BDE8F18F2DE905
:102A4000F04180460D0016000024404640B20028A8
:102A500011D0404640B2012803D0404640B202287F
:102A600003D1280040B2022805DB40F24711DFF80D
:102A7000CC0100F001F9404640B2002803D0022802
:102A800017D00BD31EE042F21170864205D34FF4EB
:102A9000A671DFF8A80100F0EFF813E042F2117020
:102AA000864205D34FF4A871DFF8900100F0E4F8F6
:102AB00008E0652E05D34FF4AA71DFF8800100F01D
:102AC000DBF8FFE7DFF88401414649B250F82110F6
:102AD00089680C00002CF5D0414649B2002903D08A
:102AE000022913D009D319E0611C01FB06F142F25F
:102AF0001072B1FBF2F10F0010E0611C01FB06F156
:102B000042F21072B1FBF2F10F0007E0611C01FB11
:102B100006F16422B1FBF2F10F00FFE7414649B232
:102B200050F82100290049B200EBC1000761BDE85F
:102B3000F08110B50400200040B2012808D0200028
:102B400040B2022804D04FF435713C4800F094F8AC
:102B5000200040B2012802D0022810D01FE03948DE
:102B6000016851F0007101604FF4E0610C2000F049
:102B700003F94FF4E0610D2000F0FEF814E0324854
:102B8000016851F0807101604FF4C0610A2000F0CB
:102B9000F3F84FF4C0610A2000F0EEF804E04FF4BF
:102BA0004771264800F068F82848210049B250F8DB
:102BB0002110496D51F00401220052B250F8222038
:102BC0005165210049B250F82110D1F8801051F020
:102BD0000801220052B250F82220C2F880100021D1
:102BE000220052B250F82220D1644FF6FF71220029
:102BF00052B250F822209160210049B250F82110C1
:102C0000D1F8801051F00101220052B250F8222078
:102C1000C2F88010210049B250F82110496D51F0DE
:102C20000101220052B250F82220516500212200F9
:102C300052B250F82200416010BD00007C4C0000F0
:102C4000940EFF1F3C800440308004402C0BFF1F7B
:102C5000DFF800F08D0CFF1FDFF800F0A50CFF1F60
:102C6000BFF34F8F3C490A6812F4E0623B480243CD
:102C70000A60BFF34F8FFEE738B504000D002A004D
:102C80002100374800F0BEF8FEE738B504000D001B
:102C9000210049B2042000F0C3F9200032BD10B574
:102CA0000024042000F0D6F9042000F00DFA0028DA
:102CB00042D1002000F020FA042000F005FA01289B
:102CC00001D101200400002000F036FA254800F070
:102CD00099F84FF4FA7000F063FA2000C0B20128AE
:102CE000EAD1042000F0F0F90028E5D1042000F03A
:102CF000EBF9002806D1002000F01EFA642000F055
:102D00004FFAF3E7042000F0DFF9012806D1002094
:102D100000F012FA322000F043FAF3E7124800F014
:102D200071F8FFF795FF642000F03AFA0020FFF7F2
:102D300093FFFFF795FFBFE710BD10B50B48047870
:102D40000B492200D2B20F2042430A442100C9B2EB
:102D5000084800F057F810BD0CED00E00400FA053B
:102D60006C4E0000384F0000C44E000004ED00E03F
:102D70001C04FF1F084E000030B4204B1C684FF4A9
:102D800000750200D2B2520995402C431C601C4AC7
:102D90000300DBB25B1152F823200300DBB213F017
:102DA0001F0342F8231030BC704730B4134B1C682B
:102DB0004FF400750200D2B2520995402C431C60BA
:102DC00031F4E0610E4A0300DBB25B1152F82330AC
:102DD0000400E4B214F01F0453F8243013F4E06349
:102DE00019430300DBB25B1152F823200300DBB26E
:102DF00013F01F0342F8231030BC704738800440A2
:102E0000A80BFF1F0EB4C0B5024603A80021019015
:102E1000009101AB0121044878440C30FDF7FCFA25
:102E200006BC5DF810FB00BFEF2000002DE9F84361
:102E300004000D00200040B2002808D0022828D04D
:102E400016D3042847D035D3052855D065E0DFF8E0
:102E5000EC01016851F4806101604FF440710F2072
:102E6000FFF78AFF4FF440710E20FFF785FF54E013
:102E7000DFF8C801016851F4006101604FF440714E
:102E80004320FFF779FF4FF440714420FFF774FFB0
:102E900043E0DFF8A801016851F4805101604FF46C
:102EA00040716320FFF768FF4FF440716220FFF725
:102EB00063FF32E0DFF88401016851F400510160E2
:102EC0004FF440718520FFF757FF4FF44071842085
:102ED000FFF752FF21E0DFF86801016851F48061DB
:102EE00001604FF440719920FFF746FF4FF44071A5
:102EF0009820FFF741FF10E0DFF84401016851F42A
:102F0000006101604FF440718920FFF735FF4FF4F5
:102F100040718820FFF730FFFFE7DFF828612000CD
:102F200040B256F82000C07810F0F300210049B2FA
:102F300056F82110C870200040B256F82000807862
:102F4000210049B256F821108870200040B20028B4
:102F500003D0200040B2012805D13B4807684FF458
:102F60007A70474304E0394807684FF47A70474362
:102F70002801B7FBF0F8404680B2B0F5005F02DBF5
:102F800041F6FF708046B7FBF5F9404680B2B9EBD9
:102F90000019484680B2202804DB40F203112C4877
:102FA000FFF76AFE200040B256F82000007810F0CB
:102FB000E000C8F304210143220052B256F8222057
:102FC0001170210049B256F8211081F801802100CA
:102FD00049B256F82110897A11F0E00119F01F0268
:102FE0000A4323005BB256F823309A72220052B291
:102FF00056F82220127C52F0880223005BB256F869
:1030000023301A74220052B256F82220D27852F09D
:103010000C0223005BB256F82330DA70BDE8F1836E
:10302000084A03005BB252F823301B791B06F7D520
:1030300003005BB252F82320D17170473480044002
:1030400028800440BC0BFF1F8C0EFF1F940EFF1F37
:103050006C4D000038B50400200040B208280EDA9C
:10306000244D00220021200040B2285C00F0A4F88A
:103070000321200040B2285CFFF797FE15E00820EE
:1030800004002000441E40B200280ED0194D00223A
:103090000021200040B2285C00F08EF803212000BF
:1030A00040B2285CFFF781FEEBE731BD10B50400AC
:1030B0001048210049B2405C00F0F6F8002801D128
:1030C000002000E0012010BD10B50400200040B237
:1030D000FFF7ECFF00280AD10A2000F061F8200079
:1030E00040B2FFF7E3FF002801D1002000E00120FB
:1030F00010BD00001004FF1F10B50400200040B2F6
:10310000042808DA01220121104823005BB2C05CC8
:1031100000F052F80FE0042004002000441E40B2EA
:10312000002808D001220121084823005BB2C05CBE
:1031300000F042F8F1E710BD10B50400034821008B
:1031400049B2405C00F093F810BD00001804FF1F66
:1031500030B40F490A6852F080720A600D490A685B
:1031600052F001020A600C4A13680C4909684FF4D6
:103170007A7491FBF4F404FB00F4E118994202D252
:103180001568A942FCD315688D42FCD330BC70474A
:10319000FCED00E0001000E0041000E08C0EFF1FCA
:1031A00010B504002000441E002804D04FF47A70AB
:1031B000FFF7CEFFF6E710BDF8B504000D001600CE
:1031C0004FF480712000C0B2FFF7D6FD280040B256
:1031D000002812D144482100C9B2491150F82110E9
:1031E0002200D2B2521150F822004269012314F099
:1031F0001F0083409A434A6138E001213A4A200087
:10320000C0B2401152F820002300DBB25B1152F82B
:1032100023305B6914F01F0711FA07F73B43436142
:103220003000C0B2002811D12000C0B2401152F8C5
:103230002000036814F01F00814033EA01012000E0
:10324000C0B2401152F8200001600FE02000C0B26F
:10325000401152F82000036814F01F008140194308
:103260002000C0B2401152F820000160F1BD38B515
:1032700004001D4D2000C0B2401155F820004069E7
:1032800014F01F01C840C00703D47B211748FFF783
:10329000F3FC2000C0B2401155F82010012214F0B8
:1032A0001F008240CA6031BD38B504000E4D2000B9
:1032B000C0B2401155F82000406914F01F01C84009
:1032C000C00703D58C210948FFF7D6FC2000C0B207
:1032D000401155F82000006914F01F04E04010F080
:1032E000010032BD00000000380BFF1FCC4C000075
:1032F00038B52DED028B00F020FADFF89C439FEDEE
:10330000578BDFF898130968401AFEF78BFB53ECD4
:10331000182BFEF73DF900F02FFA206000F012FAAA
:10332000DFF87C130968401AFEF77CFB53EC182B7E
:10333000FEF72EF900F020FADFF86813086000F0BD
:1033400006FADFF86453DFF864130968401AFEF7E1
:1033500069FB53EC182BFEF71BF900F00DFA2860FF
:1033600000F0FAF99FED578BDFF844130968401A13
:10337000FEF758FB53EC182BFEF70AF900F0FCF9A6
:10338000DFF83013086000F0ECF9DFF82C1309685F
:10339000401AFEF747FB53EC182BFEF7F9F800F044
:1033A000EBF9DFF81813086000F0E0F9DFF810130C
:1033B0000968401AFEF736FB53EC182BFEF7E8F8C5
:1033C00000F0DAF9DFF8FC120860286800F008FA6B
:1033D00041EC110BB0EE418AF0EE618A206800F0FA
:1033E000FFF941EC100BB0EE481AF0EE681A00F04D
:1033F0001EFA53EC102BDFF8D002DFF8D012FEF7E4
:10340000C7F800F0B9F9DFF8C8120860BDEC028B0C
:1034100031BDB0480088B1490988411AB04A0B0053
:103420001BB2B2F900001B1A00EE103AB8EEC00A47
:10343000AC48D0ED000A20EE200A080000B200EEF1
:10344000900AF8EEE00AA84890ED001A00EE810A12
:10345000A64880ED000A118070470000B0673B1D50
:103460000E0F203FA248A34902680A60A24991EDCD
:10347000000AB8EEC00AA149D1ED000A20EE200AE8
:1034800080ED000A70479B48994991ED000AD0ED04
:10349000000A30EE600A9A4991F90010491C00EECA
:1034A000901AF8EEE00A60EE800AB0EE001AC0EE64
:1034B000810A90ED001A70EE810A9248C0ED000A70
:1034C000704700003E1F83F33138AF3F80B58E4810
:1034D0008C4A864B93ED000AD2ED000A30EE200AAA
:1034E00080ED000A894993ED000AD2ED000A30EE22
:1034F000600A81ED000A90ED000AB5EE400AF1EE97
:1035000010FA16DD0268026090ED000ADFED360A5F
:10351000B4EE600AF1EE10FA01DB6F4A026090ED42
:10352000000AB5EE400AF1EE10FA1FD50022026043
:103530001CE090ED000AB5EE400AF1EE10FA15D845
:10354000026802609FED290AD0ED000AF4EE400AFD
:10355000F1EE10FA01D580ED000A90ED000AB5EE0B
:10356000400AF1EE10FA01DD0022026091ED000A3E
:10357000B5EE400AF1EE10FA16DD0868086091ED2C
:10358000000ADFED190AB4EE600AF1EE10FA01DB71
:103590005148086091ED000AB5EE400AF1EE10FACC
:1035A0001FD5002008601CE091ED000AB5EE400A2E
:1035B000F1EE10FA15D8086808609FED0C0AD1EDFD
:1035C000000AF4EE400AF1EE10FA01D581ED000A8E
:1035D00091ED000AB5EE400AF1EE10FA01DD00208F
:1035E000086000F005F801BD01001646000016C68F
:1035F00010B5454C94ED000AB5EE400AF1EE10FA14
:103600000FDB002203210020FFF719FA94ED000AD6
:10361000BCEEC00A10EE102A04210020FFF70FFABA
:1036200010E0002204210020FFF709FA94ED000ABF
:10363000B1EE400ABCEEC00A10EE102A03210020B1
:10364000FFF7FDF9314C94ED000AB5EE400AF1EEBA
:1036500010FA0FDB002201210020FFF7F0F994EDB2
:10366000000ABCEEC00A10EE102A02210020FFF76B
:10367000E6F910E0002202210020FFF7E0F994EDC6
:10368000000AB1EE400ABCEEC00A10EE102A012179
:103690000020FFF7D4F910BD500EFF1FD40BFF1F01
:1036A000880EFF1F540EFF1F580EFF1FD80BFF1F61
:1036B000DC0BFF1F5C0EFF1FE00BFF1F600EFF1FE8
:1036C000E40BFF1F640EFF1FE89AD56194A94C40DC
:1036D000680EFF1FEE0EFF1F00001646EC0EFF1FC8
:1036E000F00EFF1F400EFF1F440EFF1F6C0EFF1F4A
:1036F000780EFF1F7C0EFF1F740EFF1F480EFF1F6A
:10370000F20EFF1F700EFF1F800EFF1F840EFF1FA3
:1037100070B5040000252200D2B26821012000F01B
:103720008FF806003602621CD2B26821012000F038
:1037300087F856FA80F000B270BD80B54320FFF7DD
:10374000E7FF02BD80B54520FFF7E2FF02BD80B56F
:103750004720FFF7DDFF02BD80B53B20FFF7D8FF14
:1037600002BD80B53D20FFF7D3FF02BD80B53F20ED
:10377000FFF7CEFF02BD000001F000428B1AA3F15B
:103780006051B1F5801F0ADBB1F17F6F1FD242EAB1
:10379000C102C10071F1004142EB507070470B153E
:1037A000C3F10903212B10D2890241EA9051800212
:1037B0000128494141F0004121FA03F0C3F12003FF
:1037C000994071F1004150417047100070476FF00F
:1037D000000013EB103F5CBF000E42EAC050704780
:1037E000C0F3C75181B1FF2906D0C110400721F0B5
:1037F000E04101F16051704741020CBF40F4E0012B
:103800006FF000410020704700F0004100020AD034
:10381000B0FA80FC00FA0CF001F16051A1EB0C5100
:1038200001EBD0214005704741EC100B01BD80B584
:1038300053EC112B51EC100B00F0BEF8F4E7000034
:103840002DE9F04104000D0016005A4F200040B24F
:1038500057F82000807850F01000210049B257F846
:1038600021108870200040B257F82000807850F076
:103870002000210049B257F821108870680021000B
:1038800049B257F8211008710121200040B200F020
:103890005FF8200040B257F8200006710121200097
:1038A00040B200F055F8200040B257F82000807870
:1038B00050F00400210049B257F8211088706800C8
:1038C00050F00100210049B257F821100871012180
:1038D000200040B200F03CF8200040B257F8200031
:1038E000807810F0EF00210049B257F8211088705D
:1038F0000021200040B200F02BF8200040B257F821
:10390000200090F804800121200040B200F020F84F
:10391000200040B257F82000807810F0DF0021002E
:1039200049B257F821108870200040B257F82000A3
:10393000807810F0EF00210049B257F8211088700C
:10394000200040B257F820000079C0B2BDE8F081F5
:1039500030B40A00D2B2002A1CD0164A040064B265
:1039600052F82440E478A40707D41C00A4B24EF611
:103970006125AC4201DA5B1CEFE7040064B252F847
:103980002440E47854F0020405006DB252F825207A
:10399000D4700CE0074A040064B252F82440A478C2
:1039A00054F0080405006DB252F82520947030BC24
:1039B00070470000240BFF1F10B52DED048B41EC68
:1039C000180B43EC192B51EC190B48004015401C07
:1039D0003CD051EC180B48004015401C36D0C80FA5
:1039E00008D021F0004053EC182B034643EC182B71
:1039F000082400E0002451EC190BC80F08D021F076
:103A0000004053EC192B034643EC192B84F00604B9
:103A100051EC190B53EC182BFDF718FF04D2FEF7ED
:103A200085F841EC100B50E021F00041002291425A
:103A300004BF90429FED2C0B49D051EC180B53EC76
:103A4000192BFEF773F841EC100B40E051EC180B0A
:103A500048004015401C04D1090318BF51EC180B55
:103A60003ED151EC190B48004015401C04D109030C
:103A700018BF51EC190B33D151EC190B480040150C
:103A8000401C0CD109030AD151EC180B4800401519
:103A9000401C04D1090308BF9FED150B01D09FED19
:103AA000120B51EC180BC80F14BF0824002451EC62
:103AB000190BC80F18BF84F0060451EC180B48000E
:103AC0004015401C03D1090301D184F00204BDEC70
:103AD000048B2246BDE8104051EC100B00F00CB8EE
:103AE000BDEC048B10BD00BF000000000000000012
:103AF000000000000000F03FD0B52DED048B41EC3C
:103B0000180B144653EC182B00206C4900F0F8F801
:103B100008BF9FED558B00F0838051EC180B544A81
:103B2000544BFDF7ABFE1DD89FED539B53EC182B68
:103B300051EC190BFDF72CFD0022514BFEF746F915
:103B400006460F4653EC182B51EC190BFEF73EF9C5
:103B500002460B4630463946FDF7E8FF41EC180BAC
:103B600044F0010451EC180B21F0004101224FF008
:103B70007953FDF783FE53D853EC182B51EC180BF7
:103B8000FDF706FD41EC190B53EC182BFDF700FD7A
:103B900006460F4653EC192B3A483B49FDF7F8FC13
:103BA0003A4A3B4BFEF712F953EC192BFDF7F0FCA8
:103BB000384A394BFEF70AF932463B46FDF7E8FC36
:103BC00053EC182BFEF702F906460F4653EC192B5F
:103BD00032483349FDF7DCFC324A334BFEF7F6F846
:103BE00053EC192BFDF7D4FC304A314BFEF7EEF8BD
:103BF00053EC192BFDF7CCFC2E4A2F4BFEF7E6F8C1
:103C000053EC192BFDF7C4FC00222C4BFEF7DEF819
:103C100002460B4630463946FDF788FF41EC180B4B
:103C2000A00705D551EC180B81F0004141EC180BB1
:103C300014F007020BD000BF21A303EBC20251EC2A
:103C4000180B53681268FEF7C1F841EC180B2007F7
:103C500005D551EC180B81F0004141EC180B51ECEB
:103C6000180BBDEC048BD0BD182D4454FB21E93F4B
:103C700057CD9E5E1426D13FAA4C58E87AB6FB3F3A
:103C80000000F0BF845D57134B57B03FB2934C19FF
:103C9000ED5EE43FBEDE02B90240F83FDE39028F3E
:103CA000C7C0743F8AAB1283000CC83F24D7E50815
:103CB000B6D8F03F0F34580E5895FD3F0000F03F46
:103CC000000000000000000066732D3852C1E03F84
:103CD000182D4454FB21F93F66732D3852C1F03F33
:103CE000182D4454FB21F93F66732D3852C1004012
:103CF000182D4454FB2109403FD038C6A6F104409A
:103D000090420CD141EA030C50EA4C0C07D0994286
:103D100005D14FF4001C1CEB410F38BF894270479E
:103D2000DFF800F0F90DFF1F10B4DFF88C1302006C
:103D300052B231F82210020052B2012AC0F26E8152
:103D4000020052B2162A80F26981DFF87023002344
:103D500013700B009BB23D2B02DA0023537079E005
:103D60000B009BB2792B02DA0123537072E00B0037
:103D70009BB2B52B02DA022353706BE00B009BB2AF
:103D8000F12B02DA0323537064E00B009BB240F284
:103D90002D14A34202DA042353705BE00B009BB2A4
:103DA00040F26914A34202DA0523537052E00B007B
:103DB0009BB240F2A514A34202DA0623537049E0F5
:103DC0000B009BB240F2E114A34202DA07235370C6
:103DD00040E00B009BB240F21D24A34202DA08230C
:103DE000537037E00B009BB240F25924A34202DA31
:103DF000092353702EE00B009BB240F29524A3429E
:103E000002DA0A23537025E00B009BB240F2D12462
:103E1000A34202DA0B2353701CE00B009BB240F26A
:103E20000D34A34202DA0C23537013E00B009BB253
:103E300040F24934A34202DA0D2353700AE00B002A
:103E40009BB240F28534A34202DA0E23537001E0A4
:103E50000F2353700B009BB21A2B02DA00239370CE
:103E60006AE00B009BB2332B02DA0123937063E00C
:103E70000B009BB24C2B02DA022393705CE00B0028
:103E80009BB2652B02DA0323937055E00B009BB2C3
:103E90007E2B02DA042393704EE00B009BB2972B2B
:103EA00002DA0523937047E00B009BB2B02B02DAD5
:103EB0000623937040E00B009BB2C92B02DA072364
:103EC000937039E00B009BB2E22B02DA0823937067
:103ED00032E00B009BB2FB2B02DA092393702BE03C
:103EE0000B009BB2B3F58A7F02DA0A23937023E0BA
:103EF0000B009BB240F22D14A34202DA0B23937005
:103F00001AE00B009BB2B3F5A37F02DA0C23937087
:103F100012E00B009BB240F25F14A34202DA0D23C1
:103F2000937009E00B009BB2B3F5BC7F02DA0E235D
:103F3000937001E00F2393700B009BB21A2B02DAEF
:103F40000023D3706AE00B009BB2332B02DA01230B
:103F5000D37063E00B009BB24C2B02DA0223D370C8
:103F60005CE00B009BB2652B02DA0323D37055E0B3
:103F70000B009BB27E2B02DA0423D3704EE00B00C1
:103F80009BB2972B02DA0523D37047E00B009BB25C
:103F9000B02B02DA0623D37040E00B009BB2C92B92
:103FA00002DA0723D37039E00B009BB2E22B02DA6E
:103FB0000823D37032E00B009BB2FB2B02DA0923FB
:103FC000D3702BE00B009BB2B3F58A7F02DA0A2391
:103FD000D37023E00B009BB240F22D14A34202DA0F
:103FE0000B23D3701AE00B009BB2B3F5A37F02DA68
:103FF0000C23D37012E00B009BB240F25F14A3427B
:1040000002DA0D23D37009E00B009BB2B3F5BC7F3D
:1040100002DA0E23D37001E00F23D37010BC704777
:1040200070B50400200040B2FFF77EFE24480178FE
:1040300011F0FD010170017851F010010170214D66
:10404000B8202870204E3078C006FBD43078C0F3FA
:1040500081000228FAD11948C37882784178007823
:10406000FFF75EFE1448210049B200EB8101897818
:1040700011F00701154A1170210049B200EB8101CE
:10408000C97811F01F0151F04001114A11703178C7
:104090008906FCD531784906FCD5297811F03F0115
:1040A00029703178C1F381010329FAD164B230F863
:1040B0002400C0B270BD00004C0BFF1FA40BFF1FFB
:1040C00001400640004006400640064004400640CD
:1040D000054006400822DFF86832196851F40021D3
:1040E000196000BF196831F48031196000BF1100F8
:1040F0004A1EC9B2002915D0010604D5196851F429
:104100000031196003E0196831F400311960196851
:1041100051F48031196000BF196831F480311960A1
:104120004000E4E7704700000822DFF81432196805
:1041300031F400211960196831F4803119601100DF
:104140004A1EC9B2002915D0010604D5196851F4D8
:104150000031196003E0196831F400311960196801
:1041600051F48031196000BF196831F48031196051
:104170004000E4E7704738B504000D00B5F1500089
:10418000C0B2FFF7D1FF2000C0B2000950F010000C
:10419000C0B2FFF7C9FF14F00F00FFF7C5FF31BD34
:1041A00070B5040000252800C0B2082818DAB5F15F
:1041B0005000C0B2FFF7B8FF0120FFF7B5FF102095
:1041C000FFF7B2FF002006003000C0B2802805DAF9
:1041D0002000C0B2FFF77EFF761CF5E76D1CE2E71A
:1041E00070BD010089B2002909D043F226410A00BE
:1041F00011004A1E89B20029FAD1401EF1E770472A
:1042000010B54FF48070DFF83C110860DFF838110A
:104210000860DFF838110860DFF8341108605FF4D7
:104220007020DFF830110860DFF81441206850F486
:1042300080302060206830F4802020603220FFF73A
:10424000D0FF206850F480202060AE20FFF76CFF84
:104250000020FFF769FF1020FFF766FF4020FFF7FF
:1042600063FF8120FFF760FFCF20FFF75DFFA120F4
:10427000FFF75AFFC820FFF757FFA620FFF754FFAC
:10428000A820FFF751FF3F20FFF74EFFD320FFF795
:104290004BFF0020FFF748FFD520FFF745FF8020A8
:1042A000FFF742FFD920FFF73FFFF120FFF73CFF68
:1042B000DA20FFF739FF1220FFF736FFDB20FFF788
:1042C00033FF4020FFF730FF2020FFF72DFF0220B3
:1042D000FFF72AFF8D20FFF727FF1420FFF724FFA9
:1042E000A420FFF721FFA620FFF71EFFAF20FFF756
:1042F0001BFF0020FFF754FF00210020FFF73BFFCA
:1043000010BDF8B504000D0016002900C9B2200048
:10431000C0B2FFF730FF203E00273800C0B20628A9
:104320000DDA0D49320092B20620424301EB020041
:104330003900C9B2405CFFF7CDFE7F1CEDE7F1BD4F
:1043400080F00F4040B0044044B0044048B0044006
:104350004CB0044094F00F406844000070B5040075
:104360000D001600300000B200283FD536B276426C
:104370002D222900C9B22000C0B2FFF7C2FF3000D1
:1043800000B24FF47A7190FBF1F201FB120064214C
:1043900090FBF1F2303292B22900C9B2A01DC0B236
:1043A000FFF7AFFF300000B2642190FBF1F201FB98
:1043B00012000A2190FBF1F2303292B22900C9B208
:1043C00014F10C00C0B2FFF79CFF320012B20A20B9
:1043D00092FBF0F100FB1122303292B22900C9B2F7
:1043E00014F11200C0B2FFF78CFF3CE0202229003C
:1043F000C9B22000C0B2FFF784FF300000B24FF412
:104400007A7190FBF1F201FB1200642190FBF1F252
:10441000303292B22900C9B2A01DC0B2FFF771FFBD
:10442000300000B2642190FBF1F201FB12000A217E
:1044300090FBF1F2303292B22900C9B214F10C00B3
:10444000C0B2FFF75EFF320012B20A2092FBF0F119
:1044500000FB1122303292B22900C9B214F11200CD
:10446000C0B2FFF74EFF70BD00000000000000006A
:10447000002F000000000700070000147F147F14C5
:1044800000242A7F2A12006264081323003649554B
:10449000225000000503000000001C224100000023
:1044A00041221C000014083E08140008083E0808B9
:1044B000000000A060000008080808080000606014
:1044C0000000002010080402003E5149453E000053
:1044D000427F4000004261514946002141454B3135
:1044E000001814127F10002745454539003C4A4901
:1044F0004930000171090503003649494936000673
:104500004949291E000036360000000056360000DA
:104510000008142241000014141414140000412255
:10452000140800020151090600324959513E007C2D
:104530001211127C007F49494936003E4141412217
:10454000007F4141221C007F49494941007F090900
:104550000901003E4149497A007F0808087F0000B0
:10456000417F4100002040413F01007F081422416B
:10457000007F40404040007F020C027F007F040823
:10458000107F003E4141413E007F09090906003E7F
:104590004151215E007F09192946004649494931A8
:1045A0000001017F0101003F4040403F001F2040CB
:1045B000201F003F4038403F006314081463000789
:1045C0000870080700615149454300007F414100E0
:1045D00000552A552A55000041417F000004020180
:1045E000020400404040404000000102040000205E
:1045F00054545478007F484444380038444444209C
:1046000000384444487F00385454541800087E0948
:1046100001020018A4A4A47C007F08040478000010
:10462000447D4000004080847D00007F10284400CD
:104630000000417F4000007C04180478007C0804DE
:10464000047800384444443800FC2424241800181A
:10465000242418FC007C0804040800485454542006
:1046600000043F444020003C4040207C001C20408F
:10467000201C003C4030403C004428102844001CD2
:10468000A0A0A07C004464544C44141414141414CA
:10469000DFF800F0792C00005248F0210170017819
:1046A0000906FCD5007810F0710F01D0002000E061
:1046B000012070474C48016851F4002101604948CD
:1046C00001780906FBD5F021017070471CB5040084
:1046D000210089B24FF480504143009109204349A1
:1046E00008709DF80200424908709DF80100414998
:1046F00008709DF8000040490870FFF7CDFF0028C2
:1047000001D100200FE0200080B200280AD15FF024
:10471000FF327FF001034FF48161200080B200F08E
:1047200003F800E0012016BDFEB506000F001400DE
:104730001D00310089B24FF48050414311FA87F0D7
:104740000190380080B2082190FBF1F201FB1200C9
:10475000002803D0F5212948FFF79AFF380080B2DE
:1047600041F20101884203DBF7212448FFF790FF63
:104770009DF806001E4908709DF805001D49087047
:104780009DF804001C49087000949DF803001C4922
:1047900008709DF802001B4908709DF801001A4935
:1047A00008709DF800001949087007200F4908702B
:1047B00000959DF80300164908709DF80200154900
:1047C00008709DF80100144908709DF80000134915
:1047D0000870FFF761FF002801D1002000E00120F0
:1047E000FEBD00000000024004F00140070002404E
:1047F0000600024005000240040002402C4C00006C
:104800000B0002400A00024009000240080002407A
:104810000F0002400E0002400D0002400C0002405A
:10482000F0B40F4E3468356855F47F0535600D06D9
:1048300015F0706555EA0075170517F470073D43CC
:104840001F0417F470273D43064F3D6000252F00DD
:10485000FFB29F4201D26D1CF9E73460F0BC704793
:1048600000F0014044800440012210F01F018A4002
:10487000534903005BB25B0941F82320704780B5C0
:10488000002201215120FEF797FC00220121502037
:10489000FEF792FC002201215320FEF78DFC01223D
:1048A00001215220FEF788FCFFF7AAFC01BD80B56C
:1048B00000F068F8322201210020FEF7C0F8002243
:1048C00002210020FEF7BBF8322203210020FEF770
:1048D000B6F8002204210020FEF7B1F80120FEF70F
:1048E00028F90220FEF725F9364890ED000ABDEEC2
:1048F000C00A10EE102A12B201210A20FFF72EFD85
:10490000F2E710B5304C2078401C2070FEF7F0FC28
:1049100094F90000052804DBFEF7D8FD0020207084
:104920002AE094F90000012826D094F9000002281A
:1049300002D1FEF76EFD1FE094F90000032808D1B4
:1049400022480178491C0170FEF79DFDFEF7BEFD6F
:1049500012E094F9000004280ED11D4C2078401C70
:10496000207094F90000022806DBFEF77BFD002092
:1049700020700020154908701648016851F00101A7
:10498000016010BD80B5FFF77AFF00F029F872B61C
:10499000002200211120FEF70FFC00220021092037
:1049A000FEF70AFC0C480168002000F035F80B49BE
:1049B000542000F080F84420FFF756FF62B601BD96
:1049C00000E100E04C0EFF1FF30EFF1FF20EFF1F71
:1049D000F40EFF1F0C710340940EFF1F03490000EB
:1049E00010B542F210746423220001210020FDF76B
:1049F000DDFE0023220002210020FDF7D7FE642304
:104A0000220003210020FDF7D1FE00232200042113
:104A10000020FDF7CBFE10BD38B505000C00002CC2
:104A200003D124211748FEF727F91748016851F4EC
:104A3000000101600020154908601548611E2A0028
:104A400052B212018150290049B209010144C968DA
:104A500051F001012A0052B212010244D160290032
:104A600049B2090101448968490849002A0052B243
:104A700012010244916003212A0052B21201104433
:104A8000816031BD1C4D00003C800440007003403B
:104A90000071034010B504004FF4007094FBF0F176
:104AA00000FB1140002803D01E210B48FEF7E4F85C
:104AB0000A48046010BD70B504000D00084E074898
:104AC0000068B04203D030210348FEF7D5F820003B
:104AD00040B246F8205070BDBC4D000008ED00E02B
:104AE0000000FF1F80B500F083F800F023F800F00D
:104AF00005F8FEF7D4F8FFF7DAFEFEE710B52E4C06
:104B00000420FFF78DFA20602C4922684FF47A7058
:104B100042430A6008682A490968C1F30361491CD5
:104B2000B0FBF1F0274908605FF4E1310420FEF7A3
:104B30007DF910BD2DE9F0412349244888420AD06F
:104B400000221400B4F5826F05D251F8242040F8F9
:104B50002420641CF6E7FFF79DFF1D4B1D4A1E49EC
:104B60008E1A3000461E002804D010781870521C8F
:104B70005B1CF6E7194D1A4C671B3800471E0028CE
:104B800003D0002028706D1CF7E7DFF858C0DFF86D
:104B900058E0DFF85880B8EB0E063000461E0028BB
:104BA00008D09EF800008CF800001EF1010E1CF1E8
:104BB000010CF2E7BDE8F081900EFF1F8C0EFF1F85
:104BC00044800440940EFF1F000000000000FF1FFF
:104BD0001004FF1F541F0000AC270000400EFF1FF1
:104BE000F80EFF1F680CFF1F904600006848000089
:104BF00080B500F007F80B490A884FF6FE700240B6
:104C00000A8001BDEFF3118072B607494CF22052C1
:104C10000A804DF628120A800100C9B2002900D18D
:104C200062B67047002005400E2005405A3A5CE706
:104C3000A7A6E5A082E79A93E79A84E8BDA65C530D
:104C40004D555F4B36305F4C69625F312E305F46A9
:104C50006F725F42616C616E63655F4D50553630B7
:104C600035305F585C436869705C7372635C4D4BB0
:104C700036305F666C6173682E6300005A3A5CE7F9
:104C8000A7A6E5A082E79A93E79A84E8BDA65C53BD
:104C90004D555F4B36305F4C69625F312E305F4659
:104CA0006F725F42616C616E63655F4D5055363067
:104CB00035305F585C436869705C7372635C4D4B60
:104CC00036305F66746D2E63000000005A3A5CE770
:104CD000A7A6E5A082E79A93E79A84E8BDA65C536D
:104CE0004D555F4B36305F4C69625F312E305F4609
:104CF0006F725F42616C616E63655F4D5055363017
:104D000035305F585C436869705C7372635C4D4B0F
:104D100036305F6770696F2E630000005A3A5CE7B7
:104D2000A7A6E5A082E79A93E79A84E8BDA65C531C
:104D30004D555F4B36305F4C69625F312E305F46B8
:104D40006F725F42616C616E63655F4D50553630C6
:104D500035305F585C436869705C7372635C4D4BBF
:104D600036305F5049542E63000000005A3A5CE729
:104D7000A7A6E5A082E79A93E79A84E8BDA65C53CC
:104D80004D555F4B36305F4C69625F312E305F4668
:104D90006F725F42616C616E63655F4D5055363076
:104DA00035305F585C436869705C7372635C4D4B6F
:104DB00036305F756172742E630000005A3A5CE70A
:104DC000A7A6E5A082E79A93E79A84E8BDA65C537C
:104DD0004D555F4B36305F4C69625F312E305F4618
:104DE0006F725F42616C616E63655F4D5055363026
:104DF00035305F585C436869705C7372635C6D69E1
:104E000073632E63000000000A2A2A2A2A6465665A
:104E100061756C745F69737220656E746572656428
:104E2000206F6E20766563746F722025642A2A2AAB
:104E30002A2A0D0A0A257320496E746572727570EC
:104E40007400000010B5074979441831064C7C44C1
:104E5000163404E00A68081D114488470146A1423F
:104E6000F8D110BD500000005C0000004173736574
:104E70007274696F6E206661696C656420696E206A
:104E80002573206174206C696E652025640A00001A
:104E90004EF68851CEF20001086840F470000860B8
:104EA000BFF34F8FBFF36F8F4FF00070E1EE100A2A
:104EB000704700008BC3FFFFB8000000400EFF1FCB
:104EC000000000000ABDF8D0D0BDE2CBF8B2D9D7BF
:104ED000F7A3ACC7EBD6D8D0C2CBA2C8EBB9CCBC39
:104EE000FE00000000F00DF8002801D0FFF7AAFF37
:104EF000AFF300800020AFF30080FFF7D8FC00F094
:104F000002F80120704700F001B80000074638465B
:104F1000FDF71AF8FBE738B504460D46284600F0C1
:104F200005F8A84218BF0024204632BD0149FDF70C
:104F3000ACBE00BF200CFF1F0ABDF8C8EBCBC0D130
:104F4000ADBBB7B5C8B4FDA3A1000000AFF30080AE
:0C4F5000FFF79EFFFFF7C6FF00002E00D9
:0400000500004F4D5B
:00000001FF
